{
  "_format": "hh-sol-artifact-1",
  "contractName": "MyGovernor",
  "sourceName": "contracts/MyGovernor.sol",
  "abi": [
    {
      "inputs": [
        {
          "internalType": "contract IVotes",
          "name": "token",
          "type": "address"
        },
        {
          "internalType": "contract GovernanceToken",
          "name": "tokenWithBalance",
          "type": "address"
        },
        {
          "internalType": "uint256",
          "name": "minProposalBalance",
          "type": "uint256"
        },
        {
          "internalType": "uint48",
          "name": "initialVotingDelay",
          "type": "uint48"
        },
        {
          "internalType": "uint32",
          "name": "initialVotingPeriod",
          "type": "uint32"
        },
        {
          "internalType": "uint256",
          "name": "initialProposalThreshold",
          "type": "uint256"
        },
        {
          "internalType": "uint256",
          "name": "quorumPercentage",
          "type": "uint256"
        }
      ],
      "stateMutability": "nonpayable",
      "type": "constructor"
    },
    {
      "inputs": [
        {
          "internalType": "address",
          "name": "voter",
          "type": "address"
        }
      ],
      "name": "AlreadyVoted",
      "type": "error"
    },
    {
      "inputs": [],
      "name": "CheckpointUnorderedInsertion",
      "type": "error"
    },
    {
      "inputs": [],
      "name": "FailedCall",
      "type": "error"
    },
    {
      "inputs": [
        {
          "internalType": "address",
          "name": "voter",
          "type": "address"
        }
      ],
      "name": "GovernorAlreadyCastVote",
      "type": "error"
    },
    {
      "inputs": [
        {
          "internalType": "uint256",
          "name": "proposalId",
          "type": "uint256"
        }
      ],
      "name": "GovernorAlreadyQueuedProposal",
      "type": "error"
    },
    {
      "inputs": [],
      "name": "GovernorDisabledDeposit",
      "type": "error"
    },
    {
      "inputs": [
        {
          "internalType": "address",
          "name": "proposer",
          "type": "address"
        },
        {
          "internalType": "uint256",
          "name": "votes",
          "type": "uint256"
        },
        {
          "internalType": "uint256",
          "name": "threshold",
          "type": "uint256"
        }
      ],
      "name": "GovernorInsufficientProposerVotes",
      "type": "error"
    },
    {
      "inputs": [
        {
          "internalType": "uint256",
          "name": "targets",
          "type": "uint256"
        },
        {
          "internalType": "uint256",
          "name": "calldatas",
          "type": "uint256"
        },
        {
          "internalType": "uint256",
          "name": "values",
          "type": "uint256"
        }
      ],
      "name": "GovernorInvalidProposalLength",
      "type": "error"
    },
    {
      "inputs": [
        {
          "internalType": "uint256",
          "name": "quorumNumerator",
          "type": "uint256"
        },
        {
          "internalType": "uint256",
          "name": "quorumDenominator",
          "type": "uint256"
        }
      ],
      "name": "GovernorInvalidQuorumFraction",
      "type": "error"
    },
    {
      "inputs": [
        {
          "internalType": "address",
          "name": "voter",
          "type": "address"
        }
      ],
      "name": "GovernorInvalidSignature",
      "type": "error"
    },
    {
      "inputs": [],
      "name": "GovernorInvalidVoteParams",
      "type": "error"
    },
    {
      "inputs": [],
      "name": "GovernorInvalidVoteType",
      "type": "error"
    },
    {
      "inputs": [
        {
          "internalType": "uint256",
          "name": "votingPeriod",
          "type": "uint256"
        }
      ],
      "name": "GovernorInvalidVotingPeriod",
      "type": "error"
    },
    {
      "inputs": [
        {
          "internalType": "uint256",
          "name": "proposalId",
          "type": "uint256"
        }
      ],
      "name": "GovernorNonexistentProposal",
      "type": "error"
    },
    {
      "inputs": [
        {
          "internalType": "uint256",
          "name": "proposalId",
          "type": "uint256"
        }
      ],
      "name": "GovernorNotQueuedProposal",
      "type": "error"
    },
    {
      "inputs": [
        {
          "internalType": "address",
          "name": "account",
          "type": "address"
        }
      ],
      "name": "GovernorOnlyExecutor",
      "type": "error"
    },
    {
      "inputs": [],
      "name": "GovernorQueueNotImplemented",
      "type": "error"
    },
    {
      "inputs": [
        {
          "internalType": "address",
          "name": "proposer",
          "type": "address"
        }
      ],
      "name": "GovernorRestrictedProposer",
      "type": "error"
    },
    {
      "inputs": [
        {
          "internalType": "uint256",
          "name": "proposalId",
          "type": "uint256"
        },
        {
          "internalType": "address",
          "name": "account",
          "type": "address"
        }
      ],
      "name": "GovernorUnableToCancel",
      "type": "error"
    },
    {
      "inputs": [
        {
          "internalType": "uint256",
          "name": "proposalId",
          "type": "uint256"
        },
        {
          "internalType": "enum IGovernor.ProposalState",
          "name": "current",
          "type": "uint8"
        },
        {
          "internalType": "bytes32",
          "name": "expectedStates",
          "type": "bytes32"
        }
      ],
      "name": "GovernorUnexpectedProposalState",
      "type": "error"
    },
    {
      "inputs": [],
      "name": "InsufficientProposalBalance",
      "type": "error"
    },
    {
      "inputs": [
        {
          "internalType": "address",
          "name": "account",
          "type": "address"
        },
        {
          "internalType": "uint256",
          "name": "currentNonce",
          "type": "uint256"
        }
      ],
      "name": "InvalidAccountNonce",
      "type": "error"
    },
    {
      "inputs": [],
      "name": "InvalidShortString",
      "type": "error"
    },
    {
      "inputs": [
        {
          "internalType": "uint8",
          "name": "support",
          "type": "uint8"
        }
      ],
      "name": "InvalidSupportValue",
      "type": "error"
    },
    {
      "inputs": [],
      "name": "InvalidVoteAmount",
      "type": "error"
    },
    {
      "inputs": [],
      "name": "InvalidVotingType",
      "type": "error"
    },
    {
      "inputs": [
        {
          "internalType": "uint8",
          "name": "bits",
          "type": "uint8"
        },
        {
          "internalType": "uint256",
          "name": "value",
          "type": "uint256"
        }
      ],
      "name": "SafeCastOverflowedUintDowncast",
      "type": "error"
    },
    {
      "inputs": [
        {
          "internalType": "string",
          "name": "str",
          "type": "string"
        }
      ],
      "name": "StringTooLong",
      "type": "error"
    },
    {
      "inputs": [
        {
          "internalType": "uint256",
          "name": "requested",
          "type": "uint256"
        },
        {
          "internalType": "uint256",
          "name": "available",
          "type": "uint256"
        }
      ],
      "name": "VoteAmountExceedsSnapshotPower",
      "type": "error"
    },
    {
      "anonymous": false,
      "inputs": [],
      "name": "EIP712DomainChanged",
      "type": "event"
    },
    {
      "anonymous": false,
      "inputs": [
        {
          "indexed": false,
          "internalType": "uint256",
          "name": "proposalId",
          "type": "uint256"
        }
      ],
      "name": "ProposalCanceled",
      "type": "event"
    },
    {
      "anonymous": false,
      "inputs": [
        {
          "indexed": false,
          "internalType": "uint256",
          "name": "proposalId",
          "type": "uint256"
        },
        {
          "indexed": false,
          "internalType": "address",
          "name": "proposer",
          "type": "address"
        },
        {
          "indexed": false,
          "internalType": "address[]",
          "name": "targets",
          "type": "address[]"
        },
        {
          "indexed": false,
          "internalType": "uint256[]",
          "name": "values",
          "type": "uint256[]"
        },
        {
          "indexed": false,
          "internalType": "string[]",
          "name": "signatures",
          "type": "string[]"
        },
        {
          "indexed": false,
          "internalType": "bytes[]",
          "name": "calldatas",
          "type": "bytes[]"
        },
        {
          "indexed": false,
          "internalType": "uint256",
          "name": "voteStart",
          "type": "uint256"
        },
        {
          "indexed": false,
          "internalType": "uint256",
          "name": "voteEnd",
          "type": "uint256"
        },
        {
          "indexed": false,
          "internalType": "string",
          "name": "description",
          "type": "string"
        }
      ],
      "name": "ProposalCreated",
      "type": "event"
    },
    {
      "anonymous": false,
      "inputs": [
        {
          "indexed": false,
          "internalType": "uint256",
          "name": "proposalId",
          "type": "uint256"
        }
      ],
      "name": "ProposalExecuted",
      "type": "event"
    },
    {
      "anonymous": false,
      "inputs": [
        {
          "indexed": false,
          "internalType": "uint256",
          "name": "proposalId",
          "type": "uint256"
        },
        {
          "indexed": false,
          "internalType": "uint256",
          "name": "etaSeconds",
          "type": "uint256"
        }
      ],
      "name": "ProposalQueued",
      "type": "event"
    },
    {
      "anonymous": false,
      "inputs": [
        {
          "indexed": false,
          "internalType": "uint256",
          "name": "oldProposalThreshold",
          "type": "uint256"
        },
        {
          "indexed": false,
          "internalType": "uint256",
          "name": "newProposalThreshold",
          "type": "uint256"
        }
      ],
      "name": "ProposalThresholdSet",
      "type": "event"
    },
    {
      "anonymous": false,
      "inputs": [
        {
          "indexed": true,
          "internalType": "uint256",
          "name": "proposalId",
          "type": "uint256"
        },
        {
          "indexed": false,
          "internalType": "enum MyGovernor.VotingType",
          "name": "votingType",
          "type": "uint8"
        }
      ],
      "name": "ProposalVotingTypeSet",
      "type": "event"
    },
    {
      "anonymous": false,
      "inputs": [
        {
          "indexed": false,
          "internalType": "uint256",
          "name": "oldQuorumNumerator",
          "type": "uint256"
        },
        {
          "indexed": false,
          "internalType": "uint256",
          "name": "newQuorumNumerator",
          "type": "uint256"
        }
      ],
      "name": "QuorumNumeratorUpdated",
      "type": "event"
    },
    {
      "anonymous": false,
      "inputs": [
        {
          "indexed": true,
          "internalType": "address",
          "name": "voter",
          "type": "address"
        },
        {
          "indexed": false,
          "internalType": "uint256",
          "name": "proposalId",
          "type": "uint256"
        },
        {
          "indexed": false,
          "internalType": "uint8",
          "name": "support",
          "type": "uint8"
        },
        {
          "indexed": false,
          "internalType": "uint256",
          "name": "weight",
          "type": "uint256"
        },
        {
          "indexed": false,
          "internalType": "string",
          "name": "reason",
          "type": "string"
        }
      ],
      "name": "VoteCast",
      "type": "event"
    },
    {
      "anonymous": false,
      "inputs": [
        {
          "indexed": true,
          "internalType": "address",
          "name": "voter",
          "type": "address"
        },
        {
          "indexed": false,
          "internalType": "uint256",
          "name": "proposalId",
          "type": "uint256"
        },
        {
          "indexed": false,
          "internalType": "uint8",
          "name": "support",
          "type": "uint8"
        },
        {
          "indexed": false,
          "internalType": "uint256",
          "name": "weight",
          "type": "uint256"
        },
        {
          "indexed": false,
          "internalType": "string",
          "name": "reason",
          "type": "string"
        },
        {
          "indexed": false,
          "internalType": "bytes",
          "name": "params",
          "type": "bytes"
        }
      ],
      "name": "VoteCastWithParams",
      "type": "event"
    },
    {
      "anonymous": false,
      "inputs": [
        {
          "indexed": false,
          "internalType": "uint256",
          "name": "oldVotingDelay",
          "type": "uint256"
        },
        {
          "indexed": false,
          "internalType": "uint256",
          "name": "newVotingDelay",
          "type": "uint256"
        }
      ],
      "name": "VotingDelaySet",
      "type": "event"
    },
    {
      "anonymous": false,
      "inputs": [
        {
          "indexed": false,
          "internalType": "uint256",
          "name": "oldVotingPeriod",
          "type": "uint256"
        },
        {
          "indexed": false,
          "internalType": "uint256",
          "name": "newVotingPeriod",
          "type": "uint256"
        }
      ],
      "name": "VotingPeriodSet",
      "type": "event"
    },
    {
      "inputs": [],
      "name": "BALLOT_TYPEHASH",
      "outputs": [
        {
          "internalType": "bytes32",
          "name": "",
          "type": "bytes32"
        }
      ],
      "stateMutability": "view",
      "type": "function"
    },
    {
      "inputs": [],
      "name": "CLOCK_MODE",
      "outputs": [
        {
          "internalType": "string",
          "name": "",
          "type": "string"
        }
      ],
      "stateMutability": "view",
      "type": "function"
    },
    {
      "inputs": [],
      "name": "COUNTING_MODE",
      "outputs": [
        {
          "internalType": "string",
          "name": "",
          "type": "string"
        }
      ],
      "stateMutability": "pure",
      "type": "function"
    },
    {
      "inputs": [],
      "name": "EXTENDED_BALLOT_TYPEHASH",
      "outputs": [
        {
          "internalType": "bytes32",
          "name": "",
          "type": "bytes32"
        }
      ],
      "stateMutability": "view",
      "type": "function"
    },
    {
      "inputs": [
        {
          "internalType": "address[]",
          "name": "targets",
          "type": "address[]"
        },
        {
          "internalType": "uint256[]",
          "name": "values",
          "type": "uint256[]"
        },
        {
          "internalType": "bytes[]",
          "name": "calldatas",
          "type": "bytes[]"
        },
        {
          "internalType": "bytes32",
          "name": "descriptionHash",
          "type": "bytes32"
        }
      ],
      "name": "cancel",
      "outputs": [
        {
          "internalType": "uint256",
          "name": "",
          "type": "uint256"
        }
      ],
      "stateMutability": "nonpayable",
      "type": "function"
    },
    {
      "inputs": [
        {
          "internalType": "uint256",
          "name": "proposalId",
          "type": "uint256"
        },
        {
          "internalType": "uint8",
          "name": "support",
          "type": "uint8"
        }
      ],
      "name": "castVote",
      "outputs": [
        {
          "internalType": "uint256",
          "name": "",
          "type": "uint256"
        }
      ],
      "stateMutability": "nonpayable",
      "type": "function"
    },
    {
      "inputs": [
        {
          "internalType": "uint256",
          "name": "proposalId",
          "type": "uint256"
        },
        {
          "internalType": "uint8",
          "name": "support",
          "type": "uint8"
        },
        {
          "internalType": "address",
          "name": "voter",
          "type": "address"
        },
        {
          "internalType": "bytes",
          "name": "signature",
          "type": "bytes"
        }
      ],
      "name": "castVoteBySig",
      "outputs": [
        {
          "internalType": "uint256",
          "name": "",
          "type": "uint256"
        }
      ],
      "stateMutability": "nonpayable",
      "type": "function"
    },
    {
      "inputs": [
        {
          "internalType": "uint256",
          "name": "proposalId",
          "type": "uint256"
        },
        {
          "internalType": "uint8",
          "name": "support",
          "type": "uint8"
        },
        {
          "internalType": "string",
          "name": "reason",
          "type": "string"
        }
      ],
      "name": "castVoteWithReason",
      "outputs": [
        {
          "internalType": "uint256",
          "name": "",
          "type": "uint256"
        }
      ],
      "stateMutability": "nonpayable",
      "type": "function"
    },
    {
      "inputs": [
        {
          "internalType": "uint256",
          "name": "proposalId",
          "type": "uint256"
        },
        {
          "internalType": "uint8",
          "name": "support",
          "type": "uint8"
        },
        {
          "internalType": "string",
          "name": "reason",
          "type": "string"
        },
        {
          "internalType": "bytes",
          "name": "params",
          "type": "bytes"
        }
      ],
      "name": "castVoteWithReasonAndParams",
      "outputs": [
        {
          "internalType": "uint256",
          "name": "",
          "type": "uint256"
        }
      ],
      "stateMutability": "nonpayable",
      "type": "function"
    },
    {
      "inputs": [
        {
          "internalType": "uint256",
          "name": "proposalId",
          "type": "uint256"
        },
        {
          "internalType": "uint8",
          "name": "support",
          "type": "uint8"
        },
        {
          "internalType": "address",
          "name": "voter",
          "type": "address"
        },
        {
          "internalType": "string",
          "name": "reason",
          "type": "string"
        },
        {
          "internalType": "bytes",
          "name": "params",
          "type": "bytes"
        },
        {
          "internalType": "bytes",
          "name": "signature",
          "type": "bytes"
        }
      ],
      "name": "castVoteWithReasonAndParamsBySig",
      "outputs": [
        {
          "internalType": "uint256",
          "name": "",
          "type": "uint256"
        }
      ],
      "stateMutability": "nonpayable",
      "type": "function"
    },
    {
      "inputs": [],
      "name": "clock",
      "outputs": [
        {
          "internalType": "uint48",
          "name": "",
          "type": "uint48"
        }
      ],
      "stateMutability": "view",
      "type": "function"
    },
    {
      "inputs": [],
      "name": "eip712Domain",
      "outputs": [
        {
          "internalType": "bytes1",
          "name": "fields",
          "type": "bytes1"
        },
        {
          "internalType": "string",
          "name": "name",
          "type": "string"
        },
        {
          "internalType": "string",
          "name": "version",
          "type": "string"
        },
        {
          "internalType": "uint256",
          "name": "chainId",
          "type": "uint256"
        },
        {
          "internalType": "address",
          "name": "verifyingContract",
          "type": "address"
        },
        {
          "internalType": "bytes32",
          "name": "salt",
          "type": "bytes32"
        },
        {
          "internalType": "uint256[]",
          "name": "extensions",
          "type": "uint256[]"
        }
      ],
      "stateMutability": "view",
      "type": "function"
    },
    {
      "inputs": [
        {
          "internalType": "address[]",
          "name": "targets",
          "type": "address[]"
        },
        {
          "internalType": "uint256[]",
          "name": "values",
          "type": "uint256[]"
        },
        {
          "internalType": "bytes[]",
          "name": "calldatas",
          "type": "bytes[]"
        },
        {
          "internalType": "bytes32",
          "name": "descriptionHash",
          "type": "bytes32"
        }
      ],
      "name": "execute",
      "outputs": [
        {
          "internalType": "uint256",
          "name": "",
          "type": "uint256"
        }
      ],
      "stateMutability": "payable",
      "type": "function"
    },
    {
      "inputs": [
        {
          "internalType": "address[]",
          "name": "targets",
          "type": "address[]"
        },
        {
          "internalType": "uint256[]",
          "name": "values",
          "type": "uint256[]"
        },
        {
          "internalType": "bytes[]",
          "name": "calldatas",
          "type": "bytes[]"
        },
        {
          "internalType": "bytes32",
          "name": "descriptionHash",
          "type": "bytes32"
        }
      ],
      "name": "getProposalId",
      "outputs": [
        {
          "internalType": "uint256",
          "name": "",
          "type": "uint256"
        }
      ],
      "stateMutability": "view",
      "type": "function"
    },
    {
      "inputs": [
        {
          "internalType": "address",
          "name": "account",
          "type": "address"
        },
        {
          "internalType": "uint256",
          "name": "timepoint",
          "type": "uint256"
        }
      ],
      "name": "getVotes",
      "outputs": [
        {
          "internalType": "uint256",
          "name": "",
          "type": "uint256"
        }
      ],
      "stateMutability": "view",
      "type": "function"
    },
    {
      "inputs": [
        {
          "internalType": "address",
          "name": "account",
          "type": "address"
        },
        {
          "internalType": "uint256",
          "name": "timepoint",
          "type": "uint256"
        },
        {
          "internalType": "bytes",
          "name": "params",
          "type": "bytes"
        }
      ],
      "name": "getVotesWithParams",
      "outputs": [
        {
          "internalType": "uint256",
          "name": "",
          "type": "uint256"
        }
      ],
      "stateMutability": "view",
      "type": "function"
    },
    {
      "inputs": [],
      "name": "governanceToken",
      "outputs": [
        {
          "internalType": "contract GovernanceToken",
          "name": "",
          "type": "address"
        }
      ],
      "stateMutability": "view",
      "type": "function"
    },
    {
      "inputs": [
        {
          "internalType": "uint256",
          "name": "proposalId",
          "type": "uint256"
        },
        {
          "internalType": "address",
          "name": "account",
          "type": "address"
        }
      ],
      "name": "hasVoted",
      "outputs": [
        {
          "internalType": "bool",
          "name": "",
          "type": "bool"
        }
      ],
      "stateMutability": "view",
      "type": "function"
    },
    {
      "inputs": [
        {
          "internalType": "address[]",
          "name": "targets",
          "type": "address[]"
        },
        {
          "internalType": "uint256[]",
          "name": "values",
          "type": "uint256[]"
        },
        {
          "internalType": "bytes[]",
          "name": "calldatas",
          "type": "bytes[]"
        },
        {
          "internalType": "bytes32",
          "name": "descriptionHash",
          "type": "bytes32"
        }
      ],
      "name": "hashProposal",
      "outputs": [
        {
          "internalType": "uint256",
          "name": "",
          "type": "uint256"
        }
      ],
      "stateMutability": "pure",
      "type": "function"
    },
    {
      "inputs": [],
      "name": "minProposalTokenBalance",
      "outputs": [
        {
          "internalType": "uint256",
          "name": "",
          "type": "uint256"
        }
      ],
      "stateMutability": "view",
      "type": "function"
    },
    {
      "inputs": [],
      "name": "name",
      "outputs": [
        {
          "internalType": "string",
          "name": "",
          "type": "string"
        }
      ],
      "stateMutability": "view",
      "type": "function"
    },
    {
      "inputs": [
        {
          "internalType": "address",
          "name": "owner",
          "type": "address"
        }
      ],
      "name": "nonces",
      "outputs": [
        {
          "internalType": "uint256",
          "name": "",
          "type": "uint256"
        }
      ],
      "stateMutability": "view",
      "type": "function"
    },
    {
      "inputs": [
        {
          "internalType": "address",
          "name": "",
          "type": "address"
        },
        {
          "internalType": "address",
          "name": "",
          "type": "address"
        },
        {
          "internalType": "uint256[]",
          "name": "",
          "type": "uint256[]"
        },
        {
          "internalType": "uint256[]",
          "name": "",
          "type": "uint256[]"
        },
        {
          "internalType": "bytes",
          "name": "",
          "type": "bytes"
        }
      ],
      "name": "onERC1155BatchReceived",
      "outputs": [
        {
          "internalType": "bytes4",
          "name": "",
          "type": "bytes4"
        }
      ],
      "stateMutability": "nonpayable",
      "type": "function"
    },
    {
      "inputs": [
        {
          "internalType": "address",
          "name": "",
          "type": "address"
        },
        {
          "internalType": "address",
          "name": "",
          "type": "address"
        },
        {
          "internalType": "uint256",
          "name": "",
          "type": "uint256"
        },
        {
          "internalType": "uint256",
          "name": "",
          "type": "uint256"
        },
        {
          "internalType": "bytes",
          "name": "",
          "type": "bytes"
        }
      ],
      "name": "onERC1155Received",
      "outputs": [
        {
          "internalType": "bytes4",
          "name": "",
          "type": "bytes4"
        }
      ],
      "stateMutability": "nonpayable",
      "type": "function"
    },
    {
      "inputs": [
        {
          "internalType": "address",
          "name": "",
          "type": "address"
        },
        {
          "internalType": "address",
          "name": "",
          "type": "address"
        },
        {
          "internalType": "uint256",
          "name": "",
          "type": "uint256"
        },
        {
          "internalType": "bytes",
          "name": "",
          "type": "bytes"
        }
      ],
      "name": "onERC721Received",
      "outputs": [
        {
          "internalType": "bytes4",
          "name": "",
          "type": "bytes4"
        }
      ],
      "stateMutability": "nonpayable",
      "type": "function"
    },
    {
      "inputs": [
        {
          "internalType": "uint256",
          "name": "proposalId",
          "type": "uint256"
        }
      ],
      "name": "proposalDeadline",
      "outputs": [
        {
          "internalType": "uint256",
          "name": "",
          "type": "uint256"
        }
      ],
      "stateMutability": "view",
      "type": "function"
    },
    {
      "inputs": [
        {
          "internalType": "uint256",
          "name": "proposalId",
          "type": "uint256"
        }
      ],
      "name": "proposalEta",
      "outputs": [
        {
          "internalType": "uint256",
          "name": "",
          "type": "uint256"
        }
      ],
      "stateMutability": "view",
      "type": "function"
    },
    {
      "inputs": [
        {
          "internalType": "uint256",
          "name": "",
          "type": "uint256"
        }
      ],
      "name": "proposalNeedsQueuing",
      "outputs": [
        {
          "internalType": "bool",
          "name": "",
          "type": "bool"
        }
      ],
      "stateMutability": "view",
      "type": "function"
    },
    {
      "inputs": [
        {
          "internalType": "uint256",
          "name": "proposalId",
          "type": "uint256"
        }
      ],
      "name": "proposalProposer",
      "outputs": [
        {
          "internalType": "address",
          "name": "",
          "type": "address"
        }
      ],
      "stateMutability": "view",
      "type": "function"
    },
    {
      "inputs": [
        {
          "internalType": "uint256",
          "name": "proposalId",
          "type": "uint256"
        }
      ],
      "name": "proposalSnapshot",
      "outputs": [
        {
          "internalType": "uint256",
          "name": "",
          "type": "uint256"
        }
      ],
      "stateMutability": "view",
      "type": "function"
    },
    {
      "inputs": [],
      "name": "proposalThreshold",
      "outputs": [
        {
          "internalType": "uint256",
          "name": "",
          "type": "uint256"
        }
      ],
      "stateMutability": "view",
      "type": "function"
    },
    {
      "inputs": [
        {
          "internalType": "uint256",
          "name": "proposalId",
          "type": "uint256"
        }
      ],
      "name": "proposalVotes",
      "outputs": [
        {
          "internalType": "uint256",
          "name": "againstVotes",
          "type": "uint256"
        },
        {
          "internalType": "uint256",
          "name": "forVotes",
          "type": "uint256"
        },
        {
          "internalType": "uint256",
          "name": "abstainVotes",
          "type": "uint256"
        }
      ],
      "stateMutability": "view",
      "type": "function"
    },
    {
      "inputs": [
        {
          "internalType": "uint256",
          "name": "proposalId",
          "type": "uint256"
        }
      ],
      "name": "proposalVotingType",
      "outputs": [
        {
          "internalType": "enum MyGovernor.VotingType",
          "name": "",
          "type": "uint8"
        }
      ],
      "stateMutability": "view",
      "type": "function"
    },
    {
      "inputs": [
        {
          "internalType": "address[]",
          "name": "targets",
          "type": "address[]"
        },
        {
          "internalType": "uint256[]",
          "name": "values",
          "type": "uint256[]"
        },
        {
          "internalType": "bytes[]",
          "name": "calldatas",
          "type": "bytes[]"
        },
        {
          "internalType": "string",
          "name": "description",
          "type": "string"
        }
      ],
      "name": "propose",
      "outputs": [
        {
          "internalType": "uint256",
          "name": "",
          "type": "uint256"
        }
      ],
      "stateMutability": "nonpayable",
      "type": "function"
    },
    {
      "inputs": [
        {
          "internalType": "address[]",
          "name": "targets",
          "type": "address[]"
        },
        {
          "internalType": "uint256[]",
          "name": "values",
          "type": "uint256[]"
        },
        {
          "internalType": "bytes[]",
          "name": "calldatas",
          "type": "bytes[]"
        },
        {
          "internalType": "string",
          "name": "description",
          "type": "string"
        },
        {
          "internalType": "enum MyGovernor.VotingType",
          "name": "votingType",
          "type": "uint8"
        }
      ],
      "name": "proposeWithType",
      "outputs": [
        {
          "internalType": "uint256",
          "name": "",
          "type": "uint256"
        }
      ],
      "stateMutability": "nonpayable",
      "type": "function"
    },
    {
      "inputs": [
        {
          "internalType": "address[]",
          "name": "targets",
          "type": "address[]"
        },
        {
          "internalType": "uint256[]",
          "name": "values",
          "type": "uint256[]"
        },
        {
          "internalType": "bytes[]",
          "name": "calldatas",
          "type": "bytes[]"
        },
        {
          "internalType": "bytes32",
          "name": "descriptionHash",
          "type": "bytes32"
        }
      ],
      "name": "queue",
      "outputs": [
        {
          "internalType": "uint256",
          "name": "",
          "type": "uint256"
        }
      ],
      "stateMutability": "nonpayable",
      "type": "function"
    },
    {
      "inputs": [
        {
          "internalType": "uint256",
          "name": "blockNumber",
          "type": "uint256"
        }
      ],
      "name": "quorum",
      "outputs": [
        {
          "internalType": "uint256",
          "name": "",
          "type": "uint256"
        }
      ],
      "stateMutability": "view",
      "type": "function"
    },
    {
      "inputs": [],
      "name": "quorumDenominator",
      "outputs": [
        {
          "internalType": "uint256",
          "name": "",
          "type": "uint256"
        }
      ],
      "stateMutability": "view",
      "type": "function"
    },
    {
      "inputs": [
        {
          "internalType": "uint256",
          "name": "timepoint",
          "type": "uint256"
        }
      ],
      "name": "quorumNumerator",
      "outputs": [
        {
          "internalType": "uint256",
          "name": "",
          "type": "uint256"
        }
      ],
      "stateMutability": "view",
      "type": "function"
    },
    {
      "inputs": [],
      "name": "quorumNumerator",
      "outputs": [
        {
          "internalType": "uint256",
          "name": "",
          "type": "uint256"
        }
      ],
      "stateMutability": "view",
      "type": "function"
    },
    {
      "inputs": [
        {
          "internalType": "address",
          "name": "target",
          "type": "address"
        },
        {
          "internalType": "uint256",
          "name": "value",
          "type": "uint256"
        },
        {
          "internalType": "bytes",
          "name": "data",
          "type": "bytes"
        }
      ],
      "name": "relay",
      "outputs": [],
      "stateMutability": "payable",
      "type": "function"
    },
    {
      "inputs": [
        {
          "internalType": "uint256",
          "name": "newProposalThreshold",
          "type": "uint256"
        }
      ],
      "name": "setProposalThreshold",
      "outputs": [],
      "stateMutability": "nonpayable",
      "type": "function"
    },
    {
      "inputs": [
        {
          "internalType": "uint48",
          "name": "newVotingDelay",
          "type": "uint48"
        }
      ],
      "name": "setVotingDelay",
      "outputs": [],
      "stateMutability": "nonpayable",
      "type": "function"
    },
    {
      "inputs": [
        {
          "internalType": "uint32",
          "name": "newVotingPeriod",
          "type": "uint32"
        }
      ],
      "name": "setVotingPeriod",
      "outputs": [],
      "stateMutability": "nonpayable",
      "type": "function"
    },
    {
      "inputs": [
        {
          "internalType": "uint256",
          "name": "proposalId",
          "type": "uint256"
        }
      ],
      "name": "state",
      "outputs": [
        {
          "internalType": "enum IGovernor.ProposalState",
          "name": "",
          "type": "uint8"
        }
      ],
      "stateMutability": "view",
      "type": "function"
    },
    {
      "inputs": [
        {
          "internalType": "bytes4",
          "name": "interfaceId",
          "type": "bytes4"
        }
      ],
      "name": "supportsInterface",
      "outputs": [
        {
          "internalType": "bool",
          "name": "",
          "type": "bool"
        }
      ],
      "stateMutability": "view",
      "type": "function"
    },
    {
      "inputs": [],
      "name": "token",
      "outputs": [
        {
          "internalType": "contract IERC5805",
          "name": "",
          "type": "address"
        }
      ],
      "stateMutability": "view",
      "type": "function"
    },
    {
      "inputs": [
        {
          "internalType": "uint256",
          "name": "newQuorumNumerator",
          "type": "uint256"
        }
      ],
      "name": "updateQuorumNumerator",
      "outputs": [],
      "stateMutability": "nonpayable",
      "type": "function"
    },
    {
      "inputs": [],
      "name": "version",
      "outputs": [
        {
          "internalType": "string",
          "name": "",
          "type": "string"
        }
      ],
      "stateMutability": "view",
      "type": "function"
    },
    {
      "inputs": [],
      "name": "votingDelay",
      "outputs": [
        {
          "internalType": "uint256",
          "name": "",
          "type": "uint256"
        }
      ],
      "stateMutability": "view",
      "type": "function"
    },
    {
      "inputs": [],
      "name": "votingPeriod",
      "outputs": [
        {
          "internalType": "uint256",
          "name": "",
          "type": "uint256"
        }
      ],
      "stateMutability": "view",
      "type": "function"
    },
    {
      "stateMutability": "payable",
      "type": "receive"
    }
  ],
  "bytecode": "0x6101c0604052348015610010575f80fd5b50604051614b43380380614b4383398101604081905261002f916106d0565b80878585856040518060400160405280600a81526020016926bca3b7bb32b93737b960b11b8152508061006661017660201b60201c565b610070825f610191565b6101205261007f816001610191565b61014052815160208084019190912060e052815190820120610100524660a05261010b60e05161010051604080517f8b73c3c69bb8fe3d512ecc4cf759cc79239f7b179b0ffacaa9a75d522b39400f60208201529081019290925260608201524660808201523060a08201525f9060c00160405160208183030381529060405280519060200120905090565b60805250503060c052600361012082826107e7565b5061012c9050836101c3565b61013582610229565b61013e816102cd565b5050506001600160a01b0316610160526101578161030e565b5050506001600160a01b0390931661018052506101a052506109319050565b6040805180820190915260018152603160f81b602082015290565b5f6020835110156101ac576101a5836103a3565b90506101bd565b816101b784826107e7565b5060ff90505b92915050565b6008546040805165ffffffffffff928316815291831660208301527fc565b045403dc03c2eea82b81a0465edad9e2e7fc4d97e11421c209da93d7a93910160405180910390a16008805465ffffffffffff191665ffffffffffff92909216919091179055565b8063ffffffff165f036102565760405163f1cfbf0560e01b81525f60048201526024015b60405180910390fd5b6008546040805163ffffffff66010000000000009093048316815291831660208301527f7e3f7f0708a84de9203036abaa450dccc85ad5ff52f78c170f3edb55cf5e8828910160405180910390a16008805463ffffffff90921666010000000000000263ffffffff60301b19909216919091179055565b60075460408051918252602082018390527fccb45da8d5717e6c4544694297c4ba5cf151d455c9bb0ed4fc7a38411bc05461910160405180910390a1600755565b60648082111561033b5760405163243e544560e01b8152600481018390526024810182905260440161024d565b5f6103446103e0565b90506103636103516103f9565b61035a85610473565b600991906104aa565b505060408051828152602081018590527f0553476bf02ef2726e8ce5ced78d63e26e602e4a2257b1f559418e24b4633997910160405180910390a1505050565b5f80829050601f815111156103cd578260405163305a27a960e01b815260040161024d91906108a1565b80516103d8826108d6565b179392505050565b5f6103eb60096104c4565b6001600160d01b0316905090565b5f6104046101605190565b6001600160a01b03166391ddadf46040518163ffffffff1660e01b8152600401602060405180830381865afa92505050801561045d575060408051601f3d908101601f1916820190925261045a918101906108f9565b60015b61046e5761046961050c565b905090565b919050565b5f6001600160d01b038211156104a6576040516306dfcc6560e41b815260d060048201526024810183905260440161024d565b5090565b5f806104b7858585610516565b915091505b935093915050565b80545f908015610503576104ea836104dd600184610912565b5f91825260209091200190565b54660100000000000090046001600160d01b0316610505565b5f5b9392505050565b5f61046943610672565b82545f9081908015610615575f610532876104dd600185610912565b805490915065ffffffffffff80821691660100000000000090046001600160d01b031690881682111561057857604051632520601d60e01b815260040160405180910390fd5b8765ffffffffffff168265ffffffffffff16036105b457825465ffffffffffff1666010000000000006001600160d01b03891602178355610607565b6040805180820190915265ffffffffffff808a1682526001600160d01b03808a1660208085019182528d54600181018f555f8f815291909120945191519092166601000000000000029216919091179101555b94508593506104bc92505050565b50506040805180820190915265ffffffffffff80851682526001600160d01b0380851660208085019182528854600181018a555f8a81529182209551925190931666010000000000000291909316179201919091559050816104bc565b5f65ffffffffffff8211156104a6576040516306dfcc6560e41b8152603060048201526024810183905260440161024d565b6001600160a01b03811681146106b8575f80fd5b50565b805165ffffffffffff8116811461046e575f80fd5b5f805f805f805f60e0888a0312156106e6575f80fd5b87516106f1816106a4565b6020890151909750610702816106a4565b60408901519096509450610718606089016106bb565b9350608088015163ffffffff81168114610730575f80fd5b60a089015160c090990151979a96995094979396949593949392505050565b634e487b7160e01b5f52604160045260245ffd5b600181811c9082168061077757607f821691505b60208210810361079557634e487b7160e01b5f52602260045260245ffd5b50919050565b601f8211156107e257805f5260205f20601f840160051c810160208510156107c05750805b601f840160051c820191505b818110156107df575f81556001016107cc565b50505b505050565b81516001600160401b038111156108005761080061074f565b6108148161080e8454610763565b8461079b565b6020601f821160018114610846575f831561082f5750848201515b5f19600385901b1c1916600184901b1784556107df565b5f84815260208120601f198516915b828110156108755787850151825560209485019460019092019101610855565b508482101561089257868401515f19600387901b60f8161c191681555b50505050600190811b01905550565b602081525f82518060208401528060208501604085015e5f604082850101526040601f19601f83011684010191505092915050565b80516020808301519190811015610795575f1960209190910360031b1b16919050565b5f60208284031215610909575f80fd5b610505826106bb565b818103818111156101bd57634e487b7160e01b5f52601160045260245ffd5b60805160a05160c05160e05161010051610120516101405161016051610180516101a0516141796109ca5f395f818161086c015261130401525f8181610a09015261132d01525f8181610a3901528181610ecf0152818161120c01528181611cae0152611f5501525f611bf201525f611bc601525f612a6e01525f612a4601525f6129a101525f6129cb01525f6129f501526141795ff3fe6080604052600436106102dc575f3560e01c80637ecebe0011610189578063bc197c81116100d8578063e540d01d11610092578063f23a6e611161006d578063f23a6e61146109ae578063f8ce560a146109d9578063f96dae0a146109f8578063fc0c546a14610a2b575f80fd5b8063e540d01d14610951578063eb9019d414610970578063ece40cc11461098f575f80fd5b8063bc197c811461088e578063c01f9e37146108b9578063c28bc2fa146108d8578063c59057e4146108eb578063dd4e2ba51461090a578063deaaa7cc1461091e575f80fd5b8063a7713a7011610143578063ab58fb8e1161011e578063ab58fb8e146107f2578063ad1bd7f714610828578063b58131b014610847578063b658e8a21461085b575f80fd5b8063a7713a70146107a0578063a8f8a668146107b4578063a9a95294146107d3575f80fd5b80637ecebe00146106c957806384b0196e146106fd5780638ff262e31461072457806391ddadf41461074357806397c3d3341461076e5780639a802a6d14610781575f80fd5b80633e4f49e61161024557806356781388116101ff57806360c4247f116101da57806360c4247f1461064d578063790518871461066c5780637b3c71d31461068b5780637d5e81e2146106aa575f80fd5b806356781388146105f05780635b8d0e0d1461060f5780635f398a141461062e575f80fd5b80633e4f49e6146104ea5780634385963214610516578063452115d61461055a5780634bf5d7e914610579578063544ffc9c1461058d57806354fd4d50146105c7575f80fd5b8063160cbed711610296578063160cbed7146104175780632656227d146104365780632d63f693146104495780632fe3e261146104685780633932abb11461049b5780633a4b6634146104af575f80fd5b806301ffc9a7146102e957806302a251a31461031d57806306f3f9e61461034857806306fdde0314610367578063143489d014610388578063150b7a02146103d4575f80fd5b366102e557005b005b5f80fd5b3480156102f4575f80fd5b50610308610303366004613165565b610a5d565b60405190151581526020015b60405180910390f35b348015610328575f80fd5b50600854600160301b900463ffffffff165b604051908152602001610314565b348015610353575f80fd5b506102e361036236600461318c565b610ace565b348015610372575f80fd5b5061037b610ae2565b60405161031491906131d1565b348015610393575f80fd5b506103bc6103a236600461318c565b5f908152600460205260409020546001600160a01b031690565b6040516001600160a01b039091168152602001610314565b3480156103df575f80fd5b506103fe6103ee3660046132b7565b630a85bd0160e11b949350505050565b6040516001600160e01b03199091168152602001610314565b348015610422575f80fd5b5061033a610431366004613477565b610b72565b61033a610444366004613477565b610bba565b348015610454575f80fd5b5061033a61046336600461318c565b610ce2565b348015610473575f80fd5b5061033a7f3e83946653575f9a39005e1545185629e92736b7528ab20ca3816f315424a81181565b3480156104a6575f80fd5b5061033a610d02565b3480156104ba575f80fd5b506104dd6104c936600461318c565b5f908152600a602052604090205460ff1690565b604051610314919061351e565b3480156104f5575f80fd5b5061050961050436600461318c565b610d14565b604051610314919061354c565b348015610521575f80fd5b5061030861053036600461355a565b5f918252600c602090815260408084206001600160a01b0393909316845291905290205460ff1690565b348015610565575f80fd5b5061033a610574366004613477565b610e6a565b348015610584575f80fd5b5061037b610ecb565b348015610598575f80fd5b506105ac6105a736600461318c565b610f8b565b60408051938452602084019290925290820152606001610314565b3480156105d2575f80fd5b506040805180820190915260018152603160f81b602082015261037b565b3480156105fb575f80fd5b5061033a61060a366004613594565b610fc8565b34801561061a575f80fd5b5061033a6106293660046135f9565b610fef565b348015610639575f80fd5b5061033a6106483660046136b3565b6110ac565b348015610658575f80fd5b5061033a61066736600461318c565b6110f4565b348015610677575f80fd5b506102e3610686366004613747565b611100565b348015610696575f80fd5b5061033a6106a5366004613762565b611111565b3480156106b5575f80fd5b5061033a6106c43660046137b7565b611161565b3480156106d4575f80fd5b5061033a6106e3366004613854565b6001600160a01b03165f9081526002602052604090205490565b348015610708575f80fd5b50610711611178565b60405161031497969594939291906138a7565b34801561072f575f80fd5b5061033a61073e366004613916565b6111ba565b34801561074e575f80fd5b50610757611209565b60405165ffffffffffff9091168152602001610314565b348015610779575f80fd5b50606461033a565b34801561078c575f80fd5b5061033a61079b366004613961565b611290565b3480156107ab575f80fd5b5061033a6112a6565b3480156107bf575f80fd5b5061033a6107ce366004613477565b6112bf565b3480156107de575f80fd5b506103086107ed36600461318c565b505f90565b3480156107fd575f80fd5b5061033a61080c36600461318c565b5f9081526004602052604090206001015465ffffffffffff1690565b348015610833575f80fd5b5061033a6108423660046139b3565b6112cc565b348015610852575f80fd5b5061033a611457565b348015610866575f80fd5b5061033a7f000000000000000000000000000000000000000000000000000000000000000081565b348015610899575f80fd5b506103fe6108a8366004613a7f565b63bc197c8160e01b95945050505050565b3480156108c4575f80fd5b5061033a6108d336600461318c565b611461565b6102e36108e6366004613b12565b6114a3565b3480156108f6575f80fd5b5061033a610905366004613477565b61151f565b348015610915575f80fd5b5061037b611558565b348015610929575f80fd5b5061033a7ff2aad550cf55f045cb27e9c559f9889fdfb6e6cdaa032301d6ea397784ae51d781565b34801561095c575f80fd5b506102e361096b366004613b4f565b611578565b34801561097b575f80fd5b5061033a61098a366004613b72565b611589565b34801561099a575f80fd5b506102e36109a936600461318c565b6115a8565b3480156109b9575f80fd5b506103fe6109c8366004613b9a565b63f23a6e6160e01b95945050505050565b3480156109e4575f80fd5b5061033a6109f336600461318c565b6115b9565b348015610a03575f80fd5b506103bc7f000000000000000000000000000000000000000000000000000000000000000081565b348015610a36575f80fd5b507f00000000000000000000000000000000000000000000000000000000000000006103bc565b5f6001600160e01b031982166366defe7760e11b1480610a8d57506001600160e01b031982166332a2ad4360e11b145b80610aa857506001600160e01b03198216630271189760e51b145b80610ac357506301ffc9a760e01b6001600160e01b03198316145b92915050565b905090565b610ad66115c3565b610adf816115fa565b50565b606060038054610af190613bed565b80601f0160208091040260200160405190810160405280929190818152602001828054610b1d90613bed565b8015610b685780601f10610b3f57610100808354040283529160200191610b68565b820191905f5260205f20905b815481529060010190602001808311610b4b57829003601f168201915b5050505050905090565b5f80610b80868686866112bf565b9050610b9581610b90600461168f565b6116b1565b505f604051634844252360e11b815260040160405180910390fd5b5095945050505050565b5f80610bc8868686866112bf565b9050610be881610bd8600561168f565b610be2600461168f565b176116b1565b505f818152600460205260409020805460ff60f01b1916600160f01b17905530610c0f3090565b6001600160a01b031614610c98575f5b8651811015610c9657306001600160a01b0316878281518110610c4457610c44613c25565b60200260200101516001600160a01b031603610c8e57610c8e858281518110610c6f57610c6f613c25565b60200260200101518051906020012060056116ee90919063ffffffff16565b600101610c1f565b505b610ca5818787878761174f565b6040518181527f712ae1383f79ac853f8d882153778e0260ef8f03b504e2866e0593e04d2b291f906020015b60405180910390a195945050505050565b5f90815260046020526040902054600160a01b900465ffffffffffff1690565b5f610ac960085465ffffffffffff1690565b5f818152600460205260408120805460ff600160f01b8204811691600160f81b9004168115610d4857506007949350505050565b8015610d5957506002949350505050565b5f610d6386610ce2565b9050805f03610d8d57604051636ad0607560e01b8152600481018790526024015b60405180910390fd5b5f610d96611209565b65ffffffffffff169050808210610db357505f9695505050505050565b5f610dbd88611461565b9050818110610dd457506001979650505050505050565b610ddd88611824565b1580610e1c57505f888152600b602090815260409182902082516060810184528154808252600183015493820184905260029092015493019290925211155b15610e2f57506003979650505050505050565b5f8881526004602052604090206001015465ffffffffffff165f03610e5c57506004979650505050505050565b506005979650505050505050565b5f80610e78868686866112bf565b905033610e85828261184c565b610eb457604051638fe5d8a960e01b8152600481018390526001600160a01b0382166024820152604401610d84565b610ec087878787611891565b979650505050505050565b60607f00000000000000000000000000000000000000000000000000000000000000006001600160a01b0316634bf5d7e96040518163ffffffff1660e01b81526004015f60405180830381865afa925050508015610f4a57506040513d5f823e601f3d908101601f19168201604052610f479190810190613c39565b60015b610f86575060408051808201909152601d81527f6d6f64653d626c6f636b6e756d6265722666726f6d3d64656661756c74000000602082015290565b919050565b5f818152600b60209081526040918290208251606081018452815480825260018301549382018490526002909201549301839052915b9193909250565b5f80339050610fe784828560405180602001604052805f815250611940565b949350505050565b5f61103588888888888080601f0160208091040260200160405190810160405280939291908181526020018383808284375f920191909152508a92508991506119619050565b61105d576040516394ab6c0760e01b81526001600160a01b0387166004820152602401610d84565b6110a088878988888080601f0160208091040260200160405190810160405280939291908181526020018383808284375f920191909152508a9250611a2e915050565b98975050505050505050565b5f80339050610ec087828888888080601f0160208091040260200160405190810160405280939291908181526020018383808284375f920191909152508a9250611a2e915050565b5f610ac3600983611b0c565b6111086115c3565b610adf81611b59565b5f8033905061115786828787878080601f0160208091040260200160405190810160405280939291908181526020018383808284375f9201919091525061194092505050565b9695505050505050565b5f61116f858585855f6112cc565b95945050505050565b5f6060805f805f6060611189611bbf565b611191611beb565b604080515f80825260208201909252600f60f81b9b939a50919850469750309650945092509050565b5f6111c785858585611c18565b6111ef576040516394ab6c0760e01b81526001600160a01b0384166004820152602401610d84565b61116f85848660405180602001604052805f815250611940565b5f7f00000000000000000000000000000000000000000000000000000000000000006001600160a01b03166391ddadf46040518163ffffffff1660e01b8152600401602060405180830381865afa925050508015611284575060408051601f3d908101601f1916820190925261128191810190613cad565b60015b610f8657610ac9611ca1565b5f61129c848484611cab565b90505b9392505050565b5f6112b16009611d3e565b6001600160d01b0316905090565b5f61116f8585858561151f565b5f600182818111156112e0576112e061350a565b60ff1611156113025760405163efc1c97760e01b815260040160405180910390fd5b7f00000000000000000000000000000000000000000000000000000000000000006001600160a01b037f0000000000000000000000000000000000000000000000000000000000000000166370a08231336040516001600160e01b031960e084901b1681526001600160a01b039091166004820152602401602060405180830381865afa158015611395573d5f803e3d5ffd5b505050506040513d601f19601f820116820180604052508101906113b99190613cc8565b10156113d857604051631f6ec11f60e01b815260040160405180910390fd5b5f6113e587878787611d82565b5f818152600a602052604090208054919250849160ff1916600183818111156114105761141061350a565b0217905550807fd742f3983ec08e0911086ff5590f67284e774e5fe2a1192889108c054222b24084604051611445919061351e565b60405180910390a29695505050505050565b5f610ac960075490565b5f8181526004602052604081205461149590600160d01b810463ffffffff1690600160a01b900465ffffffffffff16613cf3565b65ffffffffffff1692915050565b6114ab6115c3565b5f80856001600160a01b03168585856040516114c8929190613d11565b5f6040518083038185875af1925050503d805f8114611502576040519150601f19603f3d011682016040523d82523d5f602084013e611507565b606091505b50915091506115168282611e38565b50505050505050565b5f848484846040516020016115379493929190613db3565b60408051601f19818403018152919052805160209091012095945050505050565b60606040518060600160405280602b8152602001614119602b9139905090565b6115806115c3565b610adf81611e54565b5f61129f83836115a360408051602081019091525f815290565b611cab565b6115b06115c3565b610adf81611ef0565b5f610ac382611f31565b3033146115e5576040516347096e4760e01b8152336004820152602401610d84565b565b806115f26005611fce565b036115e75750565b6064808211156116275760405163243e544560e01b81526004810183905260248101829052604401610d84565b5f6116306112a6565b905061164f61163d611209565b6116468561203b565b60099190612072565b505060408051828152602081018590527f0553476bf02ef2726e8ce5ced78d63e26e602e4a2257b1f559418e24b4633997910160405180910390a1505050565b5f8160078111156116a2576116a261350a565b600160ff919091161b92915050565b5f806116bc84610d14565b90505f836116c98361168f565b160361129f578381846040516331b75e4d60e01b8152600401610d8493929190613dfd565b81546001600160801b03600160801b82048116918116600183019091160361171a5761171a604161208c565b6001600160801b038082165f90815260018086016020526040909120939093558354919092018216600160801b029116179055565b5f5b845181101561181c575f8086838151811061176e5761176e613c25565b60200260200101516001600160a01b031686848151811061179157611791613c25565b60200260200101518685815181106117ab576117ab613c25565b60200260200101516040516117c09190613e1f565b5f6040518083038185875af1925050503d805f81146117fa576040519150601f19603f3d011682016040523d82523d5f602084013e6117ff565b606091505b509150915061180e8282611e38565b505050806001019050611751565b505050505050565b5f6118316109f383610ce2565b5f928352600b60205260409092206001015491909111919050565b5f8061185784610d14565b60078111156118685761186861350a565b14801561129f5750505f91825260046020526040909120546001600160a01b0391821691161490565b5f8061189f868686866112bf565b90506118ed816118af600761168f565b6118b9600661168f565b6118c3600261168f565b60016118d0600782613e35565b6118db906002613f29565b6118e59190613f37565b1818186116b1565b505f818152600460205260409081902080546001600160f81b0316600160f81b179055517f789cf55be980739dad1d0699b93b58e806b51c9d96619bfa8fe0a28abaa7b30c90610cd19083815260200190565b5f61116f8585858561195c60408051602081019091525f815290565b611a2e565b5f610ec085611a287f3e83946653575f9a39005e1545185629e92736b7528ab20ca3816f315424a8118a8a8a6119b38c6001600160a01b03165f90815260026020526040902080546001810190915590565b8b516020808e01919091208c518d830120604051611a0d98979695949301968752602087019590955260ff9390931660408601526001600160a01b03919091166060850152608084015260a083015260c082015260e00190565b6040516020818303038152906040528051906020012061209d565b846120c9565b5f611a3d86610b90600161168f565b505f611a5286611a4c89610ce2565b85611cab565b90505f611a628888888588612139565b905083515f03611ab857866001600160a01b03167fb8e138887d0aa13bab447e82de9d5c1777041ecd21ca36ba824ff1e6c07ddda489888489604051611aab9493929190613f4a565b60405180910390a2610ec0565b866001600160a01b03167fe2babfbac5889a709b63bb7f598b324e08bc5a4fb9ec647fb3cbc9ec07eb87128988848989604051611af9959493929190613f71565b60405180910390a2979650505050505050565b5f805f611b18856122f9565b9250925050838265ffffffffffff161115611b4557611b40611b3985612351565b8690612383565b611b47565b805b6001600160d01b031695945050505050565b6008546040805165ffffffffffff928316815291831660208301527fc565b045403dc03c2eea82b81a0465edad9e2e7fc4d97e11421c209da93d7a93910160405180910390a16008805465ffffffffffff191665ffffffffffff92909216919091179055565b6060610ac97f00000000000000000000000000000000000000000000000000000000000000005f612425565b6060610ac97f00000000000000000000000000000000000000000000000000000000000000006001612425565b5f61116f83611a287ff2aad550cf55f045cb27e9c559f9889fdfb6e6cdaa032301d6ea397784ae51d7888888611c6a8a6001600160a01b03165f90815260026020526040902080546001810190915590565b60408051602081019690965285019390935260ff90911660608401526001600160a01b0316608083015260a082015260c001611a0d565b5f610ac943612351565b5f7f0000000000000000000000000000000000000000000000000000000000000000604051630748d63560e31b81526001600160a01b038681166004830152602482018690529190911690633a46b1a890604401602060405180830381865afa158015611d1a573d5f803e3d5ffd5b505050506040513d601f19601f8201168201806040525081019061129c9190613cc8565b80545f908015611d7a57611d6483611d57600184613f37565b5f91825260209091200190565b54600160301b90046001600160d01b031661129f565b5f9392505050565b5f33611d8e81846124ce565b611db65760405163d9b3955760e01b81526001600160a01b0382166004820152602401610d84565b5f611dbf611457565b90508015611e2b575f611ded836001611dd6611209565b611de09190613faa565b65ffffffffffff16611589565b905081811015611e2957604051636121770b60e11b81526001600160a01b03841660048201526024810182905260448101839052606401610d84565b505b610ec08787878786612553565b606082611e4d57611e488261276d565b610ac3565b5080610ac3565b8063ffffffff165f03611e7c5760405163f1cfbf0560e01b81525f6004820152602401610d84565b6008546040805163ffffffff600160301b9093048316815291831660208301527f7e3f7f0708a84de9203036abaa450dccc85ad5ff52f78c170f3edb55cf5e8828910160405180910390a16008805463ffffffff909216600160301b0269ffffffff00000000000019909216919091179055565b60075460408051918252602082018390527fccb45da8d5717e6c4544694297c4ba5cf151d455c9bb0ed4fc7a38411bc05461910160405180910390a1600755565b604051632394e7a360e21b8152600481018290525f90610ac3906001600160a01b037f00000000000000000000000000000000000000000000000000000000000000001690638e539e8c90602401602060405180830381865afa158015611f9a573d5f803e3d5ffd5b505050506040513d601f19601f82011682018060405250810190611fbe9190613cc8565b611fc7846110f4565b6064612795565b80545f906001600160801b0380821691600160801b9004168103611ff657611ff6603161208c565b6001600160801b038181165f908152600185810160205260408220805492905585546fffffffffffffffffffffffffffffffff19169301909116919091179092555090565b5f6001600160d01b0382111561206e576040516306dfcc6560e41b815260d0600482015260248101839052604401610d84565b5090565b5f8061207f858585612845565b915091505b935093915050565b634e487b715f52806020526024601cfd5b5f610ac36120a9612995565b8360405161190160f01b8152600281019290925260228201526042902090565b5f836001600160a01b03163b5f03612127575f806120e78585612abe565b5090925090505f8160038111156121005761210061350a565b14801561211e5750856001600160a01b0316826001600160a01b0316145b9250505061129f565b612132848484612b07565b905061129f565b5f858152600c602090815260408083206001600160a01b038816845290915281205460ff161561218757604051633512759d60e21b81526001600160a01b0386166004820152602401610d84565b5f82515f146121a957828060200190518101906121a49190613cc8565b6121ab565b835b9050805f036121cd5760405163556ab8ed60e11b815260040160405180910390fd5b838111156121f857604051630e31054760e31b81526004810182905260248101859052604401610d84565b5f878152600c602090815260408083206001600160a01b038a1684529091528120805460ff191660019081179091555f898152600a602052604090205460ff1660018111156122495761224961350a565b14612254578161225d565b61225d82612bdd565b5f898152600b6020526040902090915060ff87166122925781815f015f8282546122879190613fc8565b909155506122ed9050565b5f1960ff8816016122b05781816001015f8282546122879190613fc8565b60011960ff8816016122cf5781816002015f8282546122879190613fc8565b6040516364ebb62b60e11b815260ff88166004820152602401610d84565b50979650505050505050565b80545f9081908190808203612317575f805f93509350935050610fc1565b5f61232786611d57600185613f37565b546001955065ffffffffffff81169450600160301b90046001600160d01b03169250610fc1915050565b5f65ffffffffffff82111561206e576040516306dfcc6560e41b81526030600482015260248101839052604401610d84565b81545f90818160058111156123df575f61239c84612c3a565b6123a69085613f37565b5f8881526020902090915081015465ffffffffffff90811690871610156123cf578091506123dd565b6123da816001613fc8565b92505b505b5f6123ec87878585612d92565b905080156124195761240387611d57600184613f37565b54600160301b90046001600160d01b0316610ec0565b5f979650505050505050565b606060ff831461243f5761243883612df1565b9050610ac3565b81805461244b90613bed565b80601f016020809104026020016040519081016040528092919081815260200182805461247790613bed565b80156124c25780601f10612499576101008083540402835291602001916124c2565b820191905f5260205f20905b8154815290600101906020018083116124a557829003601f168201915b50505050509050610ac3565b80515f9060348110156124e5576001915050610ac3565b60131981840101516001600160b01b03198116692370726f706f7365723d60b01b1461251657600192505050610ac3565b5f8061252686602a860386612e2e565b91509150811580610ec05750866001600160a01b0316816001600160a01b03161494505050505092915050565b5f61256786868686805190602001206112bf565b90508451865114158061257c57508351865114155b8061258657508551155b156125bb57855184518651604051630447b05d60e41b8152600481019390935260248301919091526044820152606401610d84565b5f81815260046020526040902054600160a01b900465ffffffffffff161561260457806125e782610d14565b6040516331b75e4d60e01b8152610d849291905f90600401613dfd565b5f61260d610d02565b612615611209565b65ffffffffffff166126279190613fc8565b90505f61264160085463ffffffff600160301b9091041690565b5f84815260046020526040902080546001600160a01b0319166001600160a01b03871617815590915061267383612351565b815465ffffffffffff91909116600160a01b0265ffffffffffff60a01b199091161781556126a082612ed7565b815463ffffffff91909116600160d01b0263ffffffff60d01b1990911617815588517f7d84a6263ae0d98d3329bd7b46bb4e8d6f98cd35a7adb45c274c8b7fd5ebd5e090859087908c908c906001600160401b03811115612703576127036131f9565b60405190808252806020026020018201604052801561273657816020015b60608152602001906001900390816127215790505b508c896127438a82613fc8565b8e60405161275999989796959493929190613fdb565b60405180910390a150505095945050505050565b80511561277c57805160208201fd5b60405163d6bda27560e01b815260040160405180910390fd5b5f805f6127a28686612f07565b91509150815f036127c6578381816127bc576127bc6140b6565b049250505061129f565b8184116127dd576127dd600385150260111861208c565b5f848688095f868103871696879004966002600389028118808a02820302808a02820302808a02820302808a02820302808a02820302808a02909103029181900381900460010185841190960395909502919093039390930492909217029150509392505050565b82545f908190801561293b575f61286187611d57600185613f37565b805490915065ffffffffffff80821691600160301b90046001600160d01b03169088168211156128a457604051632520601d60e01b815260040160405180910390fd5b8765ffffffffffff168265ffffffffffff16036128dd57825465ffffffffffff16600160301b6001600160d01b0389160217835561292d565b6040805180820190915265ffffffffffff808a1682526001600160d01b03808a1660208085019182528d54600181018f555f8f81529190912094519151909216600160301b029216919091179101555b945085935061208492505050565b50506040805180820190915265ffffffffffff80851682526001600160d01b0380851660208085019182528854600181018a555f8a815291822095519251909316600160301b029190931617920191909155905081612084565b5f306001600160a01b037f0000000000000000000000000000000000000000000000000000000000000000161480156129ed57507f000000000000000000000000000000000000000000000000000000000000000046145b15612a1757507f000000000000000000000000000000000000000000000000000000000000000090565b610ac9604080517f8b73c3c69bb8fe3d512ecc4cf759cc79239f7b179b0ffacaa9a75d522b39400f60208201527f0000000000000000000000000000000000000000000000000000000000000000918101919091527f000000000000000000000000000000000000000000000000000000000000000060608201524660808201523060a08201525f9060c00160405160208183030381529060405280519060200120905090565b5f805f8351604103612af5576020840151604085015160608601515f1a612ae788828585612f23565b955095509550505050612b00565b505081515f91506002905b9250925092565b5f805f856001600160a01b03168585604051602401612b279291906140ca565b60408051601f198184030181529181526020820180516001600160e01b0316630b135d3f60e11b17905251612b5c9190613e1f565b5f60405180830381855afa9150503d805f8114612b94576040519150601f19603f3d011682016040523d82523d5f602084013e612b99565b606091505b5091509150818015612bad57506020815110155b801561115757508051630b135d3f60e11b90612bd29083016020908101908401613cc8565b149695505050505050565b5f815f03612bec57505f919050565b5f6002612bfa846001613fc8565b612c0491906140e2565b9050825b8082101561129f575080600281612c1f81876140e2565b612c299190613fc8565b612c3391906140e2565b9150612c08565b5f60018211612c47575090565b816001600160801b8210612c605760809190911c9060401b5b680100000000000000008210612c7b5760409190911c9060201b5b6401000000008210612c925760209190911c9060101b5b620100008210612ca75760109190911c9060081b5b6101008210612cbb5760089190911c9060041b5b60108210612cce5760049190911c9060021b5b60048210612cda5760011b5b600302600190811c90818581612cf257612cf26140b6565b048201901c90506001818581612d0a57612d0a6140b6565b048201901c90506001818581612d2257612d226140b6565b048201901c90506001818581612d3a57612d3a6140b6565b048201901c90506001818581612d5257612d526140b6565b048201901c90506001818581612d6a57612d6a6140b6565b048201901c9050612d89818581612d8357612d836140b6565b04821190565b90039392505050565b5f5b81831015612de9575f612da78484612feb565b5f8781526020902090915065ffffffffffff86169082015465ffffffffffff161115612dd557809250612de3565b612de0816001613fc8565b93505b50612d94565b509392505050565b60605f612dfd83613005565b6040805160208082528183019092529192505f91906020820181803683375050509182525060208101929092525090565b5f808451831180612e3e57508284115b15612e4d57505f905080612084565b5f612e59856001613fc8565b84118015612e81575061060f60f31b612e758787016020015190565b6001600160f01b031916145b90505f612e918215156002614101565b612e9c906028613fc8565b905080612ea98787613f37565b03612eca575f80612ebb89898961302c565b90965094506120849350505050565b5f80935093505050612084565b5f63ffffffff82111561206e576040516306dfcc6560e41b81526020600482015260248101839052604401610d84565b5f805f1983850993909202808410938190039390930393915050565b5f80807f7fffffffffffffffffffffffffffffff5d576e7357a4501ddfe92f46681b20a0841115612f5c57505f91506003905082612fe1565b604080515f808252602082018084528a905260ff891692820192909252606081018790526080810186905260019060a0016020604051602081039080840390855afa158015612fad573d5f803e3d5ffd5b5050604051601f1901519150506001600160a01b038116612fd857505f925060019150829050612fe1565b92505f91508190505b9450945094915050565b5f612ff960028484186140e2565b61129f90848416613fc8565b5f60ff8216601f811115610ac357604051632cd44ac360e21b815260040160405180910390fd5b5f80848161303b866001613fc8565b85118015613063575061060f60f31b6130578388016020015190565b6001600160f01b031916145b90505f6130738215156002614101565b90505f80613081838a613fc8565b90505b878110156130dc575f6130a261309d8784016020015190565b6130ed565b9050600f8160ff1611156130c1575f8097509750505050505050612084565b6130cc601084614101565b60ff909116019150600101613084565b506001999098509650505050505050565b5f60f882901c602f811180156131065750603a8160ff16105b1561311457602f1901610ac3565b60608160ff1611801561312a575060678160ff16105b156131385760561901610ac3565b60408160ff1611801561314e575060478160ff16105b1561315c5760361901610ac3565b5060ff92915050565b5f60208284031215613175575f80fd5b81356001600160e01b03198116811461129f575f80fd5b5f6020828403121561319c575f80fd5b5035919050565b5f81518084528060208401602086015e5f602082860101526020601f19601f83011685010191505092915050565b602081525f61129f60208301846131a3565b80356001600160a01b0381168114610f86575f80fd5b634e487b7160e01b5f52604160045260245ffd5b604051601f8201601f191681016001600160401b0381118282101715613235576132356131f9565b604052919050565b5f6001600160401b03821115613255576132556131f9565b50601f01601f191660200190565b5f82601f830112613272575f80fd5b8135602083015f61328a6132858461323d565b61320d565b905082815285838301111561329d575f80fd5b828260208301375f92810160200192909252509392505050565b5f805f80608085870312156132ca575f80fd5b6132d3856131e3565b93506132e1602086016131e3565b92506040850135915060608501356001600160401b03811115613302575f80fd5b61330e87828801613263565b91505092959194509250565b5f6001600160401b03821115613332576133326131f9565b5060051b60200190565b5f82601f83011261334b575f80fd5b81356133596132858261331a565b8082825260208201915060208360051b86010192508583111561337a575f80fd5b602085015b83811015610bb057613390816131e3565b83526020928301920161337f565b5f82601f8301126133ad575f80fd5b81356133bb6132858261331a565b8082825260208201915060208360051b8601019250858311156133dc575f80fd5b602085015b83811015610bb05780358352602092830192016133e1565b5f82601f830112613408575f80fd5b81356134166132858261331a565b8082825260208201915060208360051b860101925085831115613437575f80fd5b602085015b83811015610bb05780356001600160401b03811115613459575f80fd5b613468886020838a0101613263565b8452506020928301920161343c565b5f805f806080858703121561348a575f80fd5b84356001600160401b0381111561349f575f80fd5b6134ab8782880161333c565b94505060208501356001600160401b038111156134c6575f80fd5b6134d28782880161339e565b93505060408501356001600160401b038111156134ed575f80fd5b6134f9878288016133f9565b949793965093946060013593505050565b634e487b7160e01b5f52602160045260245ffd5b60208101600283106135325761353261350a565b91905290565b600881106135485761354861350a565b9052565b60208101610ac38284613538565b5f806040838503121561356b575f80fd5b8235915061357b602084016131e3565b90509250929050565b803560ff81168114610f86575f80fd5b5f80604083850312156135a5575f80fd5b8235915061357b60208401613584565b5f8083601f8401126135c5575f80fd5b5081356001600160401b038111156135db575f80fd5b6020830191508360208285010111156135f2575f80fd5b9250929050565b5f805f805f805f60c0888a03121561360f575f80fd5b8735965061361f60208901613584565b955061362d604089016131e3565b945060608801356001600160401b03811115613647575f80fd5b6136538a828b016135b5565b90955093505060808801356001600160401b03811115613671575f80fd5b61367d8a828b01613263565b92505060a08801356001600160401b03811115613698575f80fd5b6136a48a828b01613263565b91505092959891949750929550565b5f805f805f608086880312156136c7575f80fd5b853594506136d760208701613584565b935060408601356001600160401b038111156136f1575f80fd5b6136fd888289016135b5565b90945092505060608601356001600160401b0381111561371b575f80fd5b61372788828901613263565b9150509295509295909350565b65ffffffffffff81168114610adf575f80fd5b5f60208284031215613757575f80fd5b813561129f81613734565b5f805f8060608587031215613775575f80fd5b8435935061378560208601613584565b925060408501356001600160401b0381111561379f575f80fd5b6137ab878288016135b5565b95989497509550505050565b5f805f80608085870312156137ca575f80fd5b84356001600160401b038111156137df575f80fd5b6137eb8782880161333c565b94505060208501356001600160401b03811115613806575f80fd5b6138128782880161339e565b93505060408501356001600160401b0381111561382d575f80fd5b613839878288016133f9565b92505060608501356001600160401b03811115613302575f80fd5b5f60208284031215613864575f80fd5b61129f826131e3565b5f8151808452602084019350602083015f5b8281101561389d57815186526020958601959091019060010161387f565b5093949350505050565b60ff60f81b8816815260e060208201525f6138c560e08301896131a3565b82810360408401526138d781896131a3565b606084018890526001600160a01b038716608085015260a0840186905283810360c08501529050613908818561386d565b9a9950505050505050505050565b5f805f8060808587031215613929575f80fd5b8435935061393960208601613584565b9250613947604086016131e3565b915060608501356001600160401b03811115613302575f80fd5b5f805f60608486031215613973575f80fd5b61397c846131e3565b92506020840135915060408401356001600160401b0381111561399d575f80fd5b6139a986828701613263565b9150509250925092565b5f805f805f60a086880312156139c7575f80fd5b85356001600160401b038111156139dc575f80fd5b6139e88882890161333c565b95505060208601356001600160401b03811115613a03575f80fd5b613a0f8882890161339e565b94505060408601356001600160401b03811115613a2a575f80fd5b613a36888289016133f9565b93505060608601356001600160401b03811115613a51575f80fd5b613a5d88828901613263565b925050608086013560028110613a71575f80fd5b809150509295509295909350565b5f805f805f60a08688031215613a93575f80fd5b613a9c866131e3565b9450613aaa602087016131e3565b935060408601356001600160401b03811115613ac4575f80fd5b613ad08882890161339e565b93505060608601356001600160401b03811115613aeb575f80fd5b613af78882890161339e565b92505060808601356001600160401b0381111561371b575f80fd5b5f805f8060608587031215613b25575f80fd5b613b2e856131e3565b93506020850135925060408501356001600160401b0381111561379f575f80fd5b5f60208284031215613b5f575f80fd5b813563ffffffff8116811461129f575f80fd5b5f8060408385031215613b83575f80fd5b613b8c836131e3565b946020939093013593505050565b5f805f805f60a08688031215613bae575f80fd5b613bb7866131e3565b9450613bc5602087016131e3565b9350604086013592506060860135915060808601356001600160401b0381111561371b575f80fd5b600181811c90821680613c0157607f821691505b602082108103613c1f57634e487b7160e01b5f52602260045260245ffd5b50919050565b634e487b7160e01b5f52603260045260245ffd5b5f60208284031215613c49575f80fd5b81516001600160401b03811115613c5e575f80fd5b8201601f81018413613c6e575f80fd5b8051613c7c6132858261323d565b818152856020838501011115613c90575f80fd5b8160208401602083015e5f91810160200191909152949350505050565b5f60208284031215613cbd575f80fd5b815161129f81613734565b5f60208284031215613cd8575f80fd5b5051919050565b634e487b7160e01b5f52601160045260245ffd5b65ffffffffffff8181168382160190811115610ac357610ac3613cdf565b818382375f9101908152919050565b5f8151808452602084019350602083015f5b8281101561389d5781516001600160a01b0316865260209586019590910190600101613d32565b5f82825180855260208501945060208160051b830101602085015f5b83811015613da757601f19858403018852613d918383516131a3565b6020988901989093509190910190600101613d75565b50909695505050505050565b608081525f613dc56080830187613d20565b8281036020840152613dd7818761386d565b90508281036040840152613deb8186613d59565b91505082606083015295945050505050565b83815260608101613e116020830185613538565b826040830152949350505050565b5f82518060208501845e5f920191825250919050565b60ff8181168382160190811115610ac357610ac3613cdf565b6001815b600184111561208457808504811115613e6d57613e6d613cdf565b6001841615613e7b57908102905b60019390931c928002613e52565b5f82613e9757506001610ac3565b81613ea357505f610ac3565b8160018114613eb95760028114613ec357613edf565b6001915050610ac3565b60ff841115613ed457613ed4613cdf565b50506001821b610ac3565b5060208310610133831016604e8410600b8410161715613f02575081810a610ac3565b613f0e5f198484613e4e565b805f1904821115613f2157613f21613cdf565b029392505050565b5f61129f60ff841683613e89565b81810381811115610ac357610ac3613cdf565b84815260ff84166020820152826040820152608060608201525f61115760808301846131a3565b85815260ff8516602082015283604082015260a060608201525f613f9860a08301856131a3565b82810360808401526110a081856131a3565b65ffffffffffff8281168282160390811115610ac357610ac3613cdf565b80820180821115610ac357610ac3613cdf565b8981526001600160a01b0389166020820152610120604082018190525f906140059083018a613d20565b8281036060840152614017818a61386d565b9050828103608084015280885180835260208301915060208160051b84010160208b015f5b8381101561406e57601f198684030185526140588383516131a3565b602095860195909350919091019060010161403c565b505085810360a0870152614082818b613d59565b93505050508560c08401528460e08401528281036101008401526140a681856131a3565b9c9b505050505050505050505050565b634e487b7160e01b5f52601260045260245ffd5b828152604060208201525f61129c60408301846131a3565b5f826140fc57634e487b7160e01b5f52601260045260245ffd5b500490565b8082028115828204841417610ac357610ac3613cdf56fe737570706f72743d627261766f2671756f72756d3d666f7226706172616d733d746f6b656e416d6f756e74a2646970667358221220bedecedb3cdb394b42f17c839152757558dbaf63cc7f4c14d118c7bb2e6a428c64736f6c634300081a0033",
  "linkReferences": {},
  "deployedLinkReferences": {}
}