{
  "_format": "hh-sol-artifact-1",
  "contractName": "GovernanceVoting",
  "sourceName": "contracts/GovernanceVoting.sol",
  "abi": [
    {
      "inputs": [
        {
          "internalType": "address",
          "name": "tokenAddress",
          "type": "address"
        }
      ],
      "stateMutability": "nonpayable",
      "type": "constructor"
    },
    {
      "inputs": [],
      "name": "AlreadyVoted",
      "type": "error"
    },
    {
      "inputs": [],
      "name": "InvalidVotingWindow",
      "type": "error"
    },
    {
      "inputs": [],
      "name": "NoVotingPower",
      "type": "error"
    },
    {
      "inputs": [],
      "name": "ProposalResolved",
      "type": "error"
    },
    {
      "anonymous": false,
      "inputs": [
        {
          "indexed": true,
          "internalType": "uint256",
          "name": "proposalId",
          "type": "uint256"
        },
        {
          "indexed": true,
          "internalType": "address",
          "name": "proposer",
          "type": "address"
        },
        {
          "indexed": false,
          "internalType": "bytes",
          "name": "data",
          "type": "bytes"
        },
        {
          "indexed": false,
          "internalType": "uint64",
          "name": "endBlock",
          "type": "uint64"
        }
      ],
      "name": "ProposalCreated",
      "type": "event"
    },
    {
      "anonymous": false,
      "inputs": [
        {
          "indexed": true,
          "internalType": "uint256",
          "name": "proposalId",
          "type": "uint256"
        },
        {
          "indexed": false,
          "internalType": "bytes",
          "name": "data",
          "type": "bytes"
        }
      ],
      "name": "ProposalPassed",
      "type": "event"
    },
    {
      "anonymous": false,
      "inputs": [
        {
          "indexed": true,
          "internalType": "uint256",
          "name": "proposalId",
          "type": "uint256"
        },
        {
          "indexed": true,
          "internalType": "address",
          "name": "voter",
          "type": "address"
        },
        {
          "indexed": false,
          "internalType": "bool",
          "name": "support",
          "type": "bool"
        },
        {
          "indexed": false,
          "internalType": "uint256",
          "name": "weight",
          "type": "uint256"
        }
      ],
      "name": "Voted",
      "type": "event"
    },
    {
      "inputs": [
        {
          "internalType": "bytes",
          "name": "data",
          "type": "bytes"
        },
        {
          "internalType": "uint64",
          "name": "votingPeriodBlocks",
          "type": "uint64"
        }
      ],
      "name": "createProposal",
      "outputs": [
        {
          "internalType": "uint256",
          "name": "proposalId",
          "type": "uint256"
        }
      ],
      "stateMutability": "nonpayable",
      "type": "function"
    },
    {
      "inputs": [
        {
          "internalType": "uint256",
          "name": "proposalId",
          "type": "uint256"
        }
      ],
      "name": "finalizeProposal",
      "outputs": [],
      "stateMutability": "nonpayable",
      "type": "function"
    },
    {
      "inputs": [
        {
          "internalType": "uint256",
          "name": "",
          "type": "uint256"
        },
        {
          "internalType": "address",
          "name": "",
          "type": "address"
        }
      ],
      "name": "hasVoted",
      "outputs": [
        {
          "internalType": "bool",
          "name": "",
          "type": "bool"
        }
      ],
      "stateMutability": "view",
      "type": "function"
    },
    {
      "inputs": [],
      "name": "proposalCount",
      "outputs": [
        {
          "internalType": "uint256",
          "name": "",
          "type": "uint256"
        }
      ],
      "stateMutability": "view",
      "type": "function"
    },
    {
      "inputs": [
        {
          "internalType": "uint256",
          "name": "",
          "type": "uint256"
        }
      ],
      "name": "proposals",
      "outputs": [
        {
          "internalType": "bytes",
          "name": "data",
          "type": "bytes"
        },
        {
          "internalType": "uint64",
          "name": "startBlock",
          "type": "uint64"
        },
        {
          "internalType": "uint64",
          "name": "endBlock",
          "type": "uint64"
        },
        {
          "internalType": "uint256",
          "name": "forVotes",
          "type": "uint256"
        },
        {
          "internalType": "uint256",
          "name": "againstVotes",
          "type": "uint256"
        },
        {
          "internalType": "bool",
          "name": "resolved",
          "type": "bool"
        }
      ],
      "stateMutability": "view",
      "type": "function"
    },
    {
      "inputs": [
        {
          "internalType": "uint256",
          "name": "proposalId",
          "type": "uint256"
        },
        {
          "internalType": "bool",
          "name": "support",
          "type": "bool"
        }
      ],
      "name": "vote",
      "outputs": [],
      "stateMutability": "nonpayable",
      "type": "function"
    },
    {
      "inputs": [],
      "name": "votingToken",
      "outputs": [
        {
          "internalType": "contract IERC20",
          "name": "",
          "type": "address"
        }
      ],
      "stateMutability": "view",
      "type": "function"
    }
  ],
  "bytecode": "0x60a0604052348015600e575f80fd5b50604051610c67380380610c67833981016040819052602b91603b565b6001600160a01b03166080526066565b5f60208284031215604a575f80fd5b81516001600160a01b0381168114605f575f80fd5b9392505050565b608051610bdb61008c5f395f818161012401528181610283015261066e0152610bdb5ff3fe608060405234801561000f575f80fd5b506004361061007a575f3560e01c80635652077c116100585780635652077c1461010a578063b03401231461011f578063c9d27afe1461015e578063da35c66414610171575f80fd5b8063013cf08b1461007e57806324800678146100ac57806343859632146100cd575b5f80fd5b61009161008c3660046107a6565b610179565b6040516100a3969594939291906107bd565b60405180910390f35b6100bf6100ba366004610829565b610244565b6040519081526020016100a3565b6100fa6100db3660046108b1565b600260209081525f928352604080842090915290825290205460ff1681565b60405190151581526020016100a3565b61011d6101183660046107a6565b610480565b005b6101467f000000000000000000000000000000000000000000000000000000000000000081565b6040516001600160a01b0390911681526020016100a3565b61011d61016c3660046108ea565b61057d565b6100bf5f5481565b60016020525f908152604090208054819061019390610911565b80601f01602080910402602001604051908101604052809291908181526020018280546101bf90610911565b801561020a5780601f106101e15761010080835404028352916020019161020a565b820191905f5260205f20905b8154815290600101906020018083116101ed57829003601f168201915b5050505060018301546002840154600385015460049095015493946001600160401b0380841695600160401b909404169350909160ff1686565b5f816001600160401b03165f0361026e5760405163eaf5f87d60e01b815260040160405180910390fd5b6040516370a0823160e01b81523360048201527f00000000000000000000000000000000000000000000000000000000000000006001600160a01b0316906370a0823190602401602060405180830381865afa1580156102d0573d5f803e3d5ffd5b505050506040513d601f19601f820116820180604052508101906102f49190610949565b5f0361031357604051631f05dadd60e21b815260040160405180910390fd5b5f80815461032090610974565b91829055506040805160e06020601f8801819004028201810190925260c081018681529293504392909182919088908890819085018382808284375f920191909152505050908252506001600160401b0383166020820152604001610385858461098c565b6001600160401b031681525f6020808301829052604080840183905260609093018290528582526001905220815181906103bf9082610a11565b50602082015160018201805460408501516001600160401b03908116600160401b026fffffffffffffffffffffffffffffffff19909216931692909217919091179055606082015160028201556080820151600382015560a0909101516004909101805491151560ff1990921691909117905533827f1002776fae4b573b6067ed5a5e5dd8fe0b14cdf696f92212ee21d41b9ad09db38787610461888761098c565b60405161047093929190610acb565b60405180910390a3509392505050565b5f8181526001602081905260408220908101549091600160401b9091046001600160401b031690036104c55760405163eaf5f87d60e01b815260040160405180910390fd5b600481015460ff16156104eb57604051638b19dbcb60e01b815260040160405180910390fd5b6001810154600160401b90046001600160401b0316431161051f5760405163eaf5f87d60e01b815260040160405180910390fd5b60048101805460ff1916600117905560038101546002820154111561057957817f776b7aa644ed5d6871130e519e32d05cce6f3b7246f0dd27854600563e47b680825f016040516105709190610b0b565b60405180910390a25b5050565b5f8281526001602081905260408220908101549091600160401b9091046001600160401b031690036105c25760405163eaf5f87d60e01b815260040160405180910390fd5b6001810154600160401b90046001600160401b03164311156105f75760405163eaf5f87d60e01b815260040160405180910390fd5b600481015460ff161561061d57604051638b19dbcb60e01b815260040160405180910390fd5b5f83815260026020908152604080832033845290915290205460ff161561065757604051637c9a1cf960e01b815260040160405180910390fd5b6040516370a0823160e01b81523360048201525f907f00000000000000000000000000000000000000000000000000000000000000006001600160a01b0316906370a0823190602401602060405180830381865afa1580156106bb573d5f803e3d5ffd5b505050506040513d601f19601f820116820180604052508101906106df9190610949565b9050805f0361070157604051631f05dadd60e21b815260040160405180910390fd5b5f8481526002602090815260408083203384529091529020805460ff1916600117905582156107485780826002015f82825461073d9190610b92565b909155506107619050565b80826003015f82825461075b9190610b92565b90915550505b60408051841515815260208101839052339186917f7c2de587c00d75474a0c6c6fa96fd3b45dc974cd4e8a75f712bb84c950dce1b5910160405180910390a350505050565b5f602082840312156107b6575f80fd5b5035919050565b60c081525f87518060c08401528060208a0160e085015e5f60e0828501015260e0601f19601f8301168401019150506001600160401b03871660208301526001600160401b038616604083015284606083015283608083015282151560a0830152979650505050505050565b5f805f6040848603121561083b575f80fd5b83356001600160401b03811115610850575f80fd5b8401601f81018613610860575f80fd5b80356001600160401b03811115610875575f80fd5b866020828401011115610886575f80fd5b6020918201945092508401356001600160401b03811681146108a6575f80fd5b809150509250925092565b5f80604083850312156108c2575f80fd5b8235915060208301356001600160a01b03811681146108df575f80fd5b809150509250929050565b5f80604083850312156108fb575f80fd5b82359150602083013580151581146108df575f80fd5b600181811c9082168061092557607f821691505b60208210810361094357634e487b7160e01b5f52602260045260245ffd5b50919050565b5f60208284031215610959575f80fd5b5051919050565b634e487b7160e01b5f52601160045260245ffd5b5f6001820161098557610985610960565b5060010190565b6001600160401b0381811683821601908111156109ab576109ab610960565b92915050565b634e487b7160e01b5f52604160045260245ffd5b601f821115610a0c57805f5260205f20601f840160051c810160208510156109ea5750805b601f840160051c820191505b81811015610a09575f81556001016109f6565b50505b505050565b81516001600160401b03811115610a2a57610a2a6109b1565b610a3e81610a388454610911565b846109c5565b6020601f821160018114610a70575f8315610a595750848201515b5f19600385901b1c1916600184901b178455610a09565b5f84815260208120601f198516915b82811015610a9f5787850151825560209485019460019092019101610a7f565b5084821015610abc57868401515f19600387901b60f8161c191681555b50505050600190811b01905550565b60408152826040820152828460608301375f606084830101525f6060601f19601f86011683010190506001600160401b0383166020830152949350505050565b602081525f808354610b1c81610911565b806020860152600182165f8114610b3a5760018114610b5657610b87565b60ff1983166040870152604082151560051b8701019350610b87565b865f5260205f205f5b83811015610b7e57815488820160400152600190910190602001610b5f565b87016040019450505b509195945050505050565b808201808211156109ab576109ab61096056fea26469706673582212208ab2da5d9aa1eda8245f85ed6a659df1cbdace4dc3778b19e76ee5fec3df35e864736f6c634300081a0033",
  "linkReferences": {},
  "deployedLinkReferences": {}
}