{
  "_format": "hh-sol-artifact-1",
  "contractName": "GovernanceToken",
  "sourceName": "contracts/GovernanceToken.sol",
  "abi": [
    {
      "inputs": [
        {
          "internalType": "uint256",
          "name": "initialSupply",
          "type": "uint256"
        }
      ],
      "stateMutability": "nonpayable",
      "type": "constructor"
    },
    {
      "inputs": [],
      "name": "CheckpointUnorderedInsertion",
      "type": "error"
    },
    {
      "inputs": [],
      "name": "ECDSAInvalidSignature",
      "type": "error"
    },
    {
      "inputs": [
        {
          "internalType": "uint256",
          "name": "length",
          "type": "uint256"
        }
      ],
      "name": "ECDSAInvalidSignatureLength",
      "type": "error"
    },
    {
      "inputs": [
        {
          "internalType": "bytes32",
          "name": "s",
          "type": "bytes32"
        }
      ],
      "name": "ECDSAInvalidSignatureS",
      "type": "error"
    },
    {
      "inputs": [
        {
          "internalType": "uint256",
          "name": "increasedSupply",
          "type": "uint256"
        },
        {
          "internalType": "uint256",
          "name": "cap",
          "type": "uint256"
        }
      ],
      "name": "ERC20ExceededSafeSupply",
      "type": "error"
    },
    {
      "inputs": [
        {
          "internalType": "address",
          "name": "spender",
          "type": "address"
        },
        {
          "internalType": "uint256",
          "name": "allowance",
          "type": "uint256"
        },
        {
          "internalType": "uint256",
          "name": "needed",
          "type": "uint256"
        }
      ],
      "name": "ERC20InsufficientAllowance",
      "type": "error"
    },
    {
      "inputs": [
        {
          "internalType": "address",
          "name": "sender",
          "type": "address"
        },
        {
          "internalType": "uint256",
          "name": "balance",
          "type": "uint256"
        },
        {
          "internalType": "uint256",
          "name": "needed",
          "type": "uint256"
        }
      ],
      "name": "ERC20InsufficientBalance",
      "type": "error"
    },
    {
      "inputs": [
        {
          "internalType": "address",
          "name": "approver",
          "type": "address"
        }
      ],
      "name": "ERC20InvalidApprover",
      "type": "error"
    },
    {
      "inputs": [
        {
          "internalType": "address",
          "name": "receiver",
          "type": "address"
        }
      ],
      "name": "ERC20InvalidReceiver",
      "type": "error"
    },
    {
      "inputs": [
        {
          "internalType": "address",
          "name": "sender",
          "type": "address"
        }
      ],
      "name": "ERC20InvalidSender",
      "type": "error"
    },
    {
      "inputs": [
        {
          "internalType": "address",
          "name": "spender",
          "type": "address"
        }
      ],
      "name": "ERC20InvalidSpender",
      "type": "error"
    },
    {
      "inputs": [
        {
          "internalType": "uint256",
          "name": "deadline",
          "type": "uint256"
        }
      ],
      "name": "ERC2612ExpiredSignature",
      "type": "error"
    },
    {
      "inputs": [
        {
          "internalType": "address",
          "name": "signer",
          "type": "address"
        },
        {
          "internalType": "address",
          "name": "owner",
          "type": "address"
        }
      ],
      "name": "ERC2612InvalidSigner",
      "type": "error"
    },
    {
      "inputs": [
        {
          "internalType": "uint256",
          "name": "timepoint",
          "type": "uint256"
        },
        {
          "internalType": "uint48",
          "name": "clock",
          "type": "uint48"
        }
      ],
      "name": "ERC5805FutureLookup",
      "type": "error"
    },
    {
      "inputs": [],
      "name": "ERC6372InconsistentClock",
      "type": "error"
    },
    {
      "inputs": [
        {
          "internalType": "address",
          "name": "account",
          "type": "address"
        },
        {
          "internalType": "uint256",
          "name": "currentNonce",
          "type": "uint256"
        }
      ],
      "name": "InvalidAccountNonce",
      "type": "error"
    },
    {
      "inputs": [],
      "name": "InvalidShortString",
      "type": "error"
    },
    {
      "inputs": [
        {
          "internalType": "uint8",
          "name": "bits",
          "type": "uint8"
        },
        {
          "internalType": "uint256",
          "name": "value",
          "type": "uint256"
        }
      ],
      "name": "SafeCastOverflowedUintDowncast",
      "type": "error"
    },
    {
      "inputs": [
        {
          "internalType": "string",
          "name": "str",
          "type": "string"
        }
      ],
      "name": "StringTooLong",
      "type": "error"
    },
    {
      "inputs": [
        {
          "internalType": "uint256",
          "name": "expiry",
          "type": "uint256"
        }
      ],
      "name": "VotesExpiredSignature",
      "type": "error"
    },
    {
      "anonymous": false,
      "inputs": [
        {
          "indexed": true,
          "internalType": "address",
          "name": "owner",
          "type": "address"
        },
        {
          "indexed": true,
          "internalType": "address",
          "name": "spender",
          "type": "address"
        },
        {
          "indexed": false,
          "internalType": "uint256",
          "name": "value",
          "type": "uint256"
        }
      ],
      "name": "Approval",
      "type": "event"
    },
    {
      "anonymous": false,
      "inputs": [
        {
          "indexed": true,
          "internalType": "address",
          "name": "delegator",
          "type": "address"
        },
        {
          "indexed": true,
          "internalType": "address",
          "name": "fromDelegate",
          "type": "address"
        },
        {
          "indexed": true,
          "internalType": "address",
          "name": "toDelegate",
          "type": "address"
        }
      ],
      "name": "DelegateChanged",
      "type": "event"
    },
    {
      "anonymous": false,
      "inputs": [
        {
          "indexed": true,
          "internalType": "address",
          "name": "delegate",
          "type": "address"
        },
        {
          "indexed": false,
          "internalType": "uint256",
          "name": "previousVotes",
          "type": "uint256"
        },
        {
          "indexed": false,
          "internalType": "uint256",
          "name": "newVotes",
          "type": "uint256"
        }
      ],
      "name": "DelegateVotesChanged",
      "type": "event"
    },
    {
      "anonymous": false,
      "inputs": [],
      "name": "EIP712DomainChanged",
      "type": "event"
    },
    {
      "anonymous": false,
      "inputs": [
        {
          "indexed": true,
          "internalType": "address",
          "name": "from",
          "type": "address"
        },
        {
          "indexed": true,
          "internalType": "address",
          "name": "to",
          "type": "address"
        },
        {
          "indexed": false,
          "internalType": "uint256",
          "name": "value",
          "type": "uint256"
        }
      ],
      "name": "Transfer",
      "type": "event"
    },
    {
      "inputs": [],
      "name": "CLOCK_MODE",
      "outputs": [
        {
          "internalType": "string",
          "name": "",
          "type": "string"
        }
      ],
      "stateMutability": "view",
      "type": "function"
    },
    {
      "inputs": [],
      "name": "DOMAIN_SEPARATOR",
      "outputs": [
        {
          "internalType": "bytes32",
          "name": "",
          "type": "bytes32"
        }
      ],
      "stateMutability": "view",
      "type": "function"
    },
    {
      "inputs": [
        {
          "internalType": "address",
          "name": "owner",
          "type": "address"
        },
        {
          "internalType": "address",
          "name": "spender",
          "type": "address"
        }
      ],
      "name": "allowance",
      "outputs": [
        {
          "internalType": "uint256",
          "name": "",
          "type": "uint256"
        }
      ],
      "stateMutability": "view",
      "type": "function"
    },
    {
      "inputs": [
        {
          "internalType": "address",
          "name": "spender",
          "type": "address"
        },
        {
          "internalType": "uint256",
          "name": "value",
          "type": "uint256"
        }
      ],
      "name": "approve",
      "outputs": [
        {
          "internalType": "bool",
          "name": "",
          "type": "bool"
        }
      ],
      "stateMutability": "nonpayable",
      "type": "function"
    },
    {
      "inputs": [
        {
          "internalType": "address",
          "name": "account",
          "type": "address"
        }
      ],
      "name": "balanceOf",
      "outputs": [
        {
          "internalType": "uint256",
          "name": "",
          "type": "uint256"
        }
      ],
      "stateMutability": "view",
      "type": "function"
    },
    {
      "inputs": [
        {
          "internalType": "address",
          "name": "account",
          "type": "address"
        },
        {
          "internalType": "uint32",
          "name": "pos",
          "type": "uint32"
        }
      ],
      "name": "checkpoints",
      "outputs": [
        {
          "components": [
            {
              "internalType": "uint48",
              "name": "_key",
              "type": "uint48"
            },
            {
              "internalType": "uint208",
              "name": "_value",
              "type": "uint208"
            }
          ],
          "internalType": "struct Checkpoints.Checkpoint208",
          "name": "",
          "type": "tuple"
        }
      ],
      "stateMutability": "view",
      "type": "function"
    },
    {
      "inputs": [],
      "name": "clock",
      "outputs": [
        {
          "internalType": "uint48",
          "name": "",
          "type": "uint48"
        }
      ],
      "stateMutability": "view",
      "type": "function"
    },
    {
      "inputs": [],
      "name": "decimals",
      "outputs": [
        {
          "internalType": "uint8",
          "name": "",
          "type": "uint8"
        }
      ],
      "stateMutability": "pure",
      "type": "function"
    },
    {
      "inputs": [
        {
          "internalType": "address",
          "name": "delegatee",
          "type": "address"
        }
      ],
      "name": "delegate",
      "outputs": [],
      "stateMutability": "nonpayable",
      "type": "function"
    },
    {
      "inputs": [
        {
          "internalType": "address",
          "name": "delegatee",
          "type": "address"
        },
        {
          "internalType": "uint256",
          "name": "nonce",
          "type": "uint256"
        },
        {
          "internalType": "uint256",
          "name": "expiry",
          "type": "uint256"
        },
        {
          "internalType": "uint8",
          "name": "v",
          "type": "uint8"
        },
        {
          "internalType": "bytes32",
          "name": "r",
          "type": "bytes32"
        },
        {
          "internalType": "bytes32",
          "name": "s",
          "type": "bytes32"
        }
      ],
      "name": "delegateBySig",
      "outputs": [],
      "stateMutability": "nonpayable",
      "type": "function"
    },
    {
      "inputs": [
        {
          "internalType": "address",
          "name": "account",
          "type": "address"
        }
      ],
      "name": "delegates",
      "outputs": [
        {
          "internalType": "address",
          "name": "",
          "type": "address"
        }
      ],
      "stateMutability": "view",
      "type": "function"
    },
    {
      "inputs": [],
      "name": "eip712Domain",
      "outputs": [
        {
          "internalType": "bytes1",
          "name": "fields",
          "type": "bytes1"
        },
        {
          "internalType": "string",
          "name": "name",
          "type": "string"
        },
        {
          "internalType": "string",
          "name": "version",
          "type": "string"
        },
        {
          "internalType": "uint256",
          "name": "chainId",
          "type": "uint256"
        },
        {
          "internalType": "address",
          "name": "verifyingContract",
          "type": "address"
        },
        {
          "internalType": "bytes32",
          "name": "salt",
          "type": "bytes32"
        },
        {
          "internalType": "uint256[]",
          "name": "extensions",
          "type": "uint256[]"
        }
      ],
      "stateMutability": "view",
      "type": "function"
    },
    {
      "inputs": [
        {
          "internalType": "uint256",
          "name": "timepoint",
          "type": "uint256"
        }
      ],
      "name": "getPastTotalSupply",
      "outputs": [
        {
          "internalType": "uint256",
          "name": "",
          "type": "uint256"
        }
      ],
      "stateMutability": "view",
      "type": "function"
    },
    {
      "inputs": [
        {
          "internalType": "address",
          "name": "account",
          "type": "address"
        },
        {
          "internalType": "uint256",
          "name": "timepoint",
          "type": "uint256"
        }
      ],
      "name": "getPastVotes",
      "outputs": [
        {
          "internalType": "uint256",
          "name": "",
          "type": "uint256"
        }
      ],
      "stateMutability": "view",
      "type": "function"
    },
    {
      "inputs": [
        {
          "internalType": "address",
          "name": "account",
          "type": "address"
        }
      ],
      "name": "getVotes",
      "outputs": [
        {
          "internalType": "uint256",
          "name": "",
          "type": "uint256"
        }
      ],
      "stateMutability": "view",
      "type": "function"
    },
    {
      "inputs": [],
      "name": "name",
      "outputs": [
        {
          "internalType": "string",
          "name": "",
          "type": "string"
        }
      ],
      "stateMutability": "view",
      "type": "function"
    },
    {
      "inputs": [
        {
          "internalType": "address",
          "name": "owner",
          "type": "address"
        }
      ],
      "name": "nonces",
      "outputs": [
        {
          "internalType": "uint256",
          "name": "",
          "type": "uint256"
        }
      ],
      "stateMutability": "view",
      "type": "function"
    },
    {
      "inputs": [
        {
          "internalType": "address",
          "name": "account",
          "type": "address"
        }
      ],
      "name": "numCheckpoints",
      "outputs": [
        {
          "internalType": "uint32",
          "name": "",
          "type": "uint32"
        }
      ],
      "stateMutability": "view",
      "type": "function"
    },
    {
      "inputs": [
        {
          "internalType": "address",
          "name": "owner",
          "type": "address"
        },
        {
          "internalType": "address",
          "name": "spender",
          "type": "address"
        },
        {
          "internalType": "uint256",
          "name": "value",
          "type": "uint256"
        },
        {
          "internalType": "uint256",
          "name": "deadline",
          "type": "uint256"
        },
        {
          "internalType": "uint8",
          "name": "v",
          "type": "uint8"
        },
        {
          "internalType": "bytes32",
          "name": "r",
          "type": "bytes32"
        },
        {
          "internalType": "bytes32",
          "name": "s",
          "type": "bytes32"
        }
      ],
      "name": "permit",
      "outputs": [],
      "stateMutability": "nonpayable",
      "type": "function"
    },
    {
      "inputs": [],
      "name": "symbol",
      "outputs": [
        {
          "internalType": "string",
          "name": "",
          "type": "string"
        }
      ],
      "stateMutability": "view",
      "type": "function"
    },
    {
      "inputs": [],
      "name": "totalSupply",
      "outputs": [
        {
          "internalType": "uint256",
          "name": "",
          "type": "uint256"
        }
      ],
      "stateMutability": "view",
      "type": "function"
    },
    {
      "inputs": [
        {
          "internalType": "address",
          "name": "to",
          "type": "address"
        },
        {
          "internalType": "uint256",
          "name": "value",
          "type": "uint256"
        }
      ],
      "name": "transfer",
      "outputs": [
        {
          "internalType": "bool",
          "name": "",
          "type": "bool"
        }
      ],
      "stateMutability": "nonpayable",
      "type": "function"
    },
    {
      "inputs": [
        {
          "internalType": "address",
          "name": "from",
          "type": "address"
        },
        {
          "internalType": "address",
          "name": "to",
          "type": "address"
        },
        {
          "internalType": "uint256",
          "name": "value",
          "type": "uint256"
        }
      ],
      "name": "transferFrom",
      "outputs": [
        {
          "internalType": "bool",
          "name": "",
          "type": "bool"
        }
      ],
      "stateMutability": "nonpayable",
      "type": "function"
    }
  ],
  "bytecode": "0x610160604052348015610010575f80fd5b506040516127b93803806127b983398101604081905261002f9161083c565b6040518060400160405280601081526020016f23b7bb32b93730b731b2902a37b5b2b760811b81525080604051806040016040528060018152602001603160f81b8152506040518060400160405280601081526020016f23b7bb32b93730b731b2902a37b5b2b760811b8152506040518060400160405280600381526020016247544b60e81b81525081600390816100c791906108ea565b5060046100d482826108ea565b506100e491508390506005610199565b610120526100f3816006610199565b61014052815160208084019190912060e052815190820120610100524660a05261017f60e05161010051604080517f8b73c3c69bb8fe3d512ecc4cf759cc79239f7b179b0ffacaa9a75d522b39400f60208201529081019290925260608201524660808201523060a08201525f9060c00160405160208183030381529060405280519060200120905090565b60805250503060c0525061019333826101cb565b50610a74565b5f6020835110156101b4576101ad83610208565b90506101c5565b816101bf84826108ea565b5060ff90505b92915050565b6001600160a01b0382166101f95760405163ec442f0560e01b81525f60048201526024015b60405180910390fd5b6102045f8383610245565b5050565b5f80829050601f81511115610232578260405163305a27a960e01b81526004016101f091906109a4565b805161023d826109d9565b179392505050565b610250838383610255565b505050565b6102608383836102bb565b6001600160a01b0383166102b0575f61027860025490565b90506001600160d01b03808211156102ad57604051630e58ae9360e11b815260048101839052602481018290526044016101f0565b50505b6102508383836103e1565b6001600160a01b0383166102e5578060025f8282546102da9190610a10565b909155506103559050565b6001600160a01b0383165f90815260208190526040902054818110156103375760405163391434e360e21b81526001600160a01b038516600482015260248101829052604481018390526064016101f0565b6001600160a01b0384165f9081526020819052604090209082900390555b6001600160a01b0382166103715760028054829003905561038f565b6001600160a01b0382165f9081526020819052604090208054820190555b816001600160a01b0316836001600160a01b03167fddf252ad1be2c89b69c2b068fc378daa952ba7f163c4a11628f55a4df523b3ef836040516103d491815260200190565b60405180910390a3505050565b6001600160a01b03831661040f5761040c600a61082b61046960201b176104078461047b565b6104b2565b50505b6001600160a01b03821661043857610435600a6108366104e760201b176104078461047b565b50505b6001600160a01b038381165f90815260086020526040808220548584168352912054610250929182169116836104f2565b5f6104748284610a23565b9392505050565b5f6001600160d01b038211156104ae576040516306dfcc6560e41b815260d06004820152602481018390526044016101f0565b5090565b5f806104da6104bf610642565b6104d26104cb88610650565b868860201c565b879190610697565b915091505b935093915050565b5f6104748284610a42565b816001600160a01b0316836001600160a01b03161415801561051357505f81115b15610250576001600160a01b038316156105ab576001600160a01b0383165f9081526009602090815260408220829161055991906104e7901b610836176104078661047b565b6001600160d01b031691506001600160d01b03169150846001600160a01b03165f8051602061279983398151915283836040516105a0929190918252602082015260400190565b60405180910390a250505b6001600160a01b03821615610250576001600160a01b0382165f908152600960209081526040822082916105ec9190610469901b61082b176104078661047b565b6001600160d01b031691506001600160d01b03169150836001600160a01b03165f805160206127998339815191528383604051610633929190918252602082015260400190565b60405180910390a25050505050565b5f61064b6106a4565b905090565b80545f90801561068f5761067683610669600184610a61565b5f91825260209091200190565b54660100000000000090046001600160d01b0316610474565b5f9392505050565b5f806104da8585856106ae565b5f61064b4361080a565b82545f90819080156107ad575f6106ca87610669600185610a61565b805490915065ffffffffffff80821691660100000000000090046001600160d01b031690881682111561071057604051632520601d60e01b815260040160405180910390fd5b8765ffffffffffff168265ffffffffffff160361074c57825465ffffffffffff1666010000000000006001600160d01b0389160217835561079f565b6040805180820190915265ffffffffffff808a1682526001600160d01b03808a1660208085019182528d54600181018f555f8f815291909120945191519092166601000000000000029216919091179101555b94508593506104df92505050565b50506040805180820190915265ffffffffffff80851682526001600160d01b0380851660208085019182528854600181018a555f8a81529182209551925190931666010000000000000291909316179201919091559050816104df565b5f65ffffffffffff8211156104ae576040516306dfcc6560e41b815260306004820152602481018390526044016101f0565b5f6020828403121561084c575f80fd5b5051919050565b634e487b7160e01b5f52604160045260245ffd5b600181811c9082168061087b57607f821691505b60208210810361089957634e487b7160e01b5f52602260045260245ffd5b50919050565b601f82111561025057805f5260205f20601f840160051c810160208510156108c45750805b601f840160051c820191505b818110156108e3575f81556001016108d0565b5050505050565b81516001600160401b0381111561090357610903610853565b610917816109118454610867565b8461089f565b6020601f821160018114610949575f83156109325750848201515b5f19600385901b1c1916600184901b1784556108e3565b5f84815260208120601f198516915b828110156109785787850151825560209485019460019092019101610958565b508482101561099557868401515f19600387901b60f8161c191681555b50505050600190811b01905550565b602081525f82518060208401528060208501604085015e5f604082850101526040601f19601f83011684010191505092915050565b80516020808301519190811015610899575f1960209190910360031b1b16919050565b634e487b7160e01b5f52601160045260245ffd5b808201808211156101c5576101c56109fc565b6001600160d01b0381811683821601908111156101c5576101c56109fc565b6001600160d01b0382811682821603908111156101c5576101c56109fc565b818103818111156101c5576101c56109fc565b60805160a05160c05160e051610100516101205161014051611cd4610ac55f395f610c4001525f610c1301525f610a0501525f6109dd01525f61093801525f61096201525f61098c0152611cd45ff3fe608060405234801561000f575f80fd5b5060043610610148575f3560e01c806370a08231116100bf5780639ab24eb0116100795780639ab24eb0146102f3578063a9059cbb14610306578063c3cda52014610319578063d505accf1461032c578063dd62ed3e1461033f578063f1127ed814610377575f80fd5b806370a08231146102635780637ecebe001461028b57806384b0196e1461029e5780638e539e8c146102b957806391ddadf4146102cc57806395d89b41146102eb575f80fd5b80633644e515116101105780633644e515146101c05780633a46b1a8146101c85780634bf5d7e9146101db578063587cde1e146101e35780635c19a95c146102265780636fcfff451461023b575f80fd5b806306fdde031461014c578063095ea7b31461016a57806318160ddd1461018d57806323b872dd1461019f578063313ce567146101b2575b5f80fd5b6101546103b6565b6040516101619190611906565b60405180910390f35b61017d610178366004611933565b610446565b6040519015158152602001610161565b6002545b604051908152602001610161565b61017d6101ad36600461195b565b61045f565b6040515f8152602001610161565b610191610482565b6101916101d6366004611933565b610490565b6101546104ca565b61020e6101f1366004611995565b6001600160a01b039081165f908152600860205260409020541690565b6040516001600160a01b039091168152602001610161565b610239610234366004611995565b610542565b005b61024e610249366004611995565b610551565b60405163ffffffff9091168152602001610161565b610191610271366004611995565b6001600160a01b03165f9081526020819052604090205490565b610191610299366004611995565b61055b565b6102a6610565565b60405161016197969594939291906119ae565b6101916102c7366004611a44565b6105a7565b6102d46105cb565b60405165ffffffffffff9091168152602001610161565b6101546105d4565b610191610301366004611995565b6105e3565b61017d610314366004611933565b610603565b610239610327366004611a6b565b610610565b61023961033a366004611abf565b6106d1565b61019161034d366004611b25565b6001600160a01b039182165f90815260016020908152604080832093909416825291909152205490565b61038a610385366004611b56565b610807565b60408051825165ffffffffffff1681526020928301516001600160d01b03169281019290925201610161565b6060600380546103c590611b93565b80601f01602080910402602001604051908101604052809291908181526020018280546103f190611b93565b801561043c5780601f106104135761010080835404028352916020019161043c565b820191905f5260205f20905b81548152906001019060200180831161041f57829003601f168201915b5050505050905090565b5f33610453818585610841565b60019150505b92915050565b5f3361046c858285610853565b6104778585856108cf565b506001949350505050565b5f61048b61092c565b905090565b5f6104ba61049d83610a55565b6001600160a01b0385165f90815260096020526040902090610aa3565b6001600160d01b03169392505050565b60606104d4610b53565b65ffffffffffff166104e46105cb565b65ffffffffffff161461050a576040516301bfc1c560e61b815260040160405180910390fd5b5060408051808201909152601d81527f6d6f64653d626c6f636b6e756d6265722666726f6d3d64656661756c74000000602082015290565b3361054d8183610b5d565b5050565b5f61045982610bce565b5f61045982610bef565b5f6060805f805f6060610576610c0c565b61057e610c39565b604080515f80825260208201909252600f60f81b9b939a50919850469750309650945092509050565b5f6105bc6105b483610a55565b600a90610aa3565b6001600160d01b031692915050565b5f61048b610b53565b6060600480546103c590611b93565b6001600160a01b0381165f9081526009602052604081206105bc90610c66565b5f336104538185856108cf565b8342111561063957604051632341d78760e11b8152600481018590526024015b60405180910390fd5b604080517fe48329057bfd03d55e49b547132e39cffd9c1820ad7b9d4c5307691425d15adf60208201526001600160a01b0388169181019190915260608101869052608081018590525f906106b2906106aa9060a00160405160208183030381529060405280519060200120610c9d565b858585610cc9565b90506106be8187610cf5565b6106c88188610b5d565b50505050505050565b834211156106f55760405163313c898160e11b815260048101859052602401610630565b5f7f6e71edae12b1b97f4d1f60370fef10105fa2faae0126114a169c64845d6126c98888886107408c6001600160a01b03165f90815260076020526040902080546001810190915590565b6040805160208101969096526001600160a01b0394851690860152929091166060840152608083015260a082015260c0810186905260e0016040516020818303038152906040528051906020012090505f61079a82610c9d565b90505f6107a982878787610cc9565b9050896001600160a01b0316816001600160a01b0316146107f0576040516325c0072360e11b81526001600160a01b0380831660048301528b166024820152604401610630565b6107fb8a8a8a610841565b50505050505050505050565b604080518082019091525f80825260208201526108248383610d47565b9392505050565b5f6108248284611bdf565b5f6108248284611bfe565b61084e8383836001610d7b565b505050565b6001600160a01b038381165f908152600160209081526040808320938616835292905220545f198110156108c957818110156108bb57604051637dc7a0d960e11b81526001600160a01b03841660048201526024810182905260448101839052606401610630565b6108c984848484035f610d7b565b50505050565b6001600160a01b0383166108f857604051634b637e8f60e11b81525f6004820152602401610630565b6001600160a01b0382166109215760405163ec442f0560e01b81525f6004820152602401610630565b61084e838383610e4d565b5f306001600160a01b037f00000000000000000000000000000000000000000000000000000000000000001614801561098457507f000000000000000000000000000000000000000000000000000000000000000046145b156109ae57507f000000000000000000000000000000000000000000000000000000000000000090565b61048b604080517f8b73c3c69bb8fe3d512ecc4cf759cc79239f7b179b0ffacaa9a75d522b39400f60208201527f0000000000000000000000000000000000000000000000000000000000000000918101919091527f000000000000000000000000000000000000000000000000000000000000000060608201524660808201523060a08201525f9060c00160405160208183030381529060405280519060200120905090565b5f80610a5f6105cb565b90508065ffffffffffff168310610a9a57604051637669fc0f60e11b81526004810184905265ffffffffffff82166024820152604401610630565b61082483610e58565b81545f9081816005811115610aff575f610abc84610e8e565b610ac69085611c1d565b5f8881526020902090915081015465ffffffffffff9081169087161015610aef57809150610afd565b610afa816001611c30565b92505b505b5f610b0c87878585610fe6565b90508015610b4657610b3087610b23600184611c1d565b5f91825260209091200190565b54600160301b90046001600160d01b0316610b48565b5f5b979650505050505050565b5f61048b43610e58565b6001600160a01b038281165f8181526008602052604080822080548686166001600160a01b0319821681179092559151919094169392849290917f3134e8a2e6d97e929a7e54011ea5485d7d196dd5f0ba4d4ef95803e8e3fc257f9190a461084e8183610bc986611045565b611062565b6001600160a01b0381165f90815260096020526040812054610459906111cb565b6001600160a01b0381165f90815260076020526040812054610459565b606061048b7f000000000000000000000000000000000000000000000000000000000000000060056111fb565b606061048b7f000000000000000000000000000000000000000000000000000000000000000060066111fb565b80545f908015610c9557610c7f83610b23600184611c1d565b54600160301b90046001600160d01b0316610824565b5f9392505050565b5f610459610ca961092c565b8360405161190160f01b8152600281019290925260228201526042902090565b5f805f80610cd9888888886112a4565b925092509250610ce9828261136c565b50909695505050505050565b6001600160a01b0382165f90815260076020526040902080546001810190915581811461084e576040516301d4b62360e61b81526001600160a01b038416600482015260248101829052604401610630565b604080518082019091525f80825260208201526001600160a01b0383165f9081526009602052604090206108249083611424565b6001600160a01b038416610da45760405163e602df0560e01b81525f6004820152602401610630565b6001600160a01b038316610dcd57604051634a1406b160e11b81525f6004820152602401610630565b6001600160a01b038085165f90815260016020908152604080832093871683529290522082905580156108c957826001600160a01b0316846001600160a01b03167f8c5be1e5ebec7d5bd14f71427d1e84f3dd0314c0f7b2291e5b200ac8c7c3b92584604051610e3f91815260200190565b60405180910390a350505050565b61084e838383611491565b5f65ffffffffffff821115610e8a576040516306dfcc6560e41b81526030600482015260248101839052604401610630565b5090565b5f60018211610e9b575090565b816001600160801b8210610eb45760809190911c9060401b5b680100000000000000008210610ecf5760409190911c9060201b5b6401000000008210610ee65760209190911c9060101b5b620100008210610efb5760109190911c9060081b5b6101008210610f0f5760089190911c9060041b5b60108210610f225760049190911c9060021b5b60048210610f2e5760011b5b600302600190811c90818581610f4657610f46611c43565b048201901c90506001818581610f5e57610f5e611c43565b048201901c90506001818581610f7657610f76611c43565b048201901c90506001818581610f8e57610f8e611c43565b048201901c90506001818581610fa657610fa6611c43565b048201901c90506001818581610fbe57610fbe611c43565b048201901c9050610fdd818581610fd757610fd7611c43565b04821190565b90039392505050565b5f5b8183101561103d575f610ffb84846114f7565b5f8781526020902090915065ffffffffffff86169082015465ffffffffffff16111561102957809250611037565b611034816001611c30565b93505b50610fe8565b509392505050565b6001600160a01b0381165f90815260208190526040812054610459565b816001600160a01b0316836001600160a01b03161415801561108357505f81115b1561084e576001600160a01b0383161561112a576001600160a01b0383165f90815260096020526040812081906110c5906108366110c086611511565b611544565b6001600160d01b031691506001600160d01b03169150846001600160a01b03167fdec2bacdd2f05b59de34da9b523dff8be42e5e38e818c82fdb0bae774387a724838360405161111f929190918252602082015260400190565b60405180910390a250505b6001600160a01b0382161561084e576001600160a01b0382165f90815260096020526040812081906111629061082b6110c086611511565b6001600160d01b031691506001600160d01b03169150836001600160a01b03167fdec2bacdd2f05b59de34da9b523dff8be42e5e38e818c82fdb0bae774387a72483836040516111bc929190918252602082015260400190565b60405180910390a25050505050565b5f63ffffffff821115610e8a576040516306dfcc6560e41b81526020600482015260248101839052604401610630565b606060ff83146112155761120e8361157c565b9050610459565b81805461122190611b93565b80601f016020809104026020016040519081016040528092919081815260200182805461124d90611b93565b80156112985780601f1061126f57610100808354040283529160200191611298565b820191905f5260205f20905b81548152906001019060200180831161127b57829003601f168201915b50505050509050610459565b5f80807f7fffffffffffffffffffffffffffffff5d576e7357a4501ddfe92f46681b20a08411156112dd57505f91506003905082611362565b604080515f808252602082018084528a905260ff891692820192909252606081018790526080810186905260019060a0016020604051602081039080840390855afa15801561132e573d5f803e3d5ffd5b5050604051601f1901519150506001600160a01b03811661135957505f925060019150829050611362565b92505f91508190505b9450945094915050565b5f82600381111561137f5761137f611c57565b03611388575050565b600182600381111561139c5761139c611c57565b036113ba5760405163f645eedf60e01b815260040160405180910390fd5b60028260038111156113ce576113ce611c57565b036113ef5760405163fce698f760e01b815260048101829052602401610630565b600382600381111561140357611403611c57565b0361054d576040516335e2f38360e21b815260048101829052602401610630565b604080518082019091525f8082526020820152825f018263ffffffff168154811061145157611451611c6b565b5f9182526020918290206040805180820190915291015465ffffffffffff81168252600160301b90046001600160d01b0316918101919091529392505050565b61149c8383836115b9565b6001600160a01b0383166114ec575f6114b460025490565b90506001600160d01b03808211156114e957604051630e58ae9360e11b81526004810183905260248101829052604401610630565b50505b61084e8383836116df565b5f6115056002848418611c7f565b61082490848416611c30565b5f6001600160d01b03821115610e8a576040516306dfcc6560e41b815260d0600482015260248101839052604401610630565b5f8061156f6115516105cb565b61156761155d88610c66565b868863ffffffff16565b879190611754565b915091505b935093915050565b60605f61158883611761565b6040805160208082528183019092529192505f91906020820181803683375050509182525060208101929092525090565b6001600160a01b0383166115e3578060025f8282546115d89190611c30565b909155506116539050565b6001600160a01b0383165f90815260208190526040902054818110156116355760405163391434e360e21b81526001600160a01b03851660048201526024810182905260448101839052606401610630565b6001600160a01b0384165f9081526020819052604090209082900390555b6001600160a01b03821661166f5760028054829003905561168d565b6001600160a01b0382165f9081526020819052604090208054820190555b816001600160a01b0316836001600160a01b03167fddf252ad1be2c89b69c2b068fc378daa952ba7f163c4a11628f55a4df523b3ef836040516116d291815260200190565b60405180910390a3505050565b6001600160a01b038316611701576116fe600a61082b6110c084611511565b50505b6001600160a01b03821661172357611720600a6108366110c084611511565b50505b6001600160a01b038381165f9081526008602052604080822054858416835291205461084e92918216911683611062565b5f8061156f858585611788565b5f60ff8216601f81111561045957604051632cd44ac360e21b815260040160405180910390fd5b82545f908190801561187e575f6117a487610b23600185611c1d565b805490915065ffffffffffff80821691600160301b90046001600160d01b03169088168211156117e757604051632520601d60e01b815260040160405180910390fd5b8765ffffffffffff168265ffffffffffff160361182057825465ffffffffffff16600160301b6001600160d01b03891602178355611870565b6040805180820190915265ffffffffffff808a1682526001600160d01b03808a1660208085019182528d54600181018f555f8f81529190912094519151909216600160301b029216919091179101555b945085935061157492505050565b50506040805180820190915265ffffffffffff80851682526001600160d01b0380851660208085019182528854600181018a555f8a815291822095519251909316600160301b029190931617920191909155905081611574565b5f81518084528060208401602086015e5f602082860101526020601f19601f83011685010191505092915050565b602081525f61082460208301846118d8565b80356001600160a01b038116811461192e575f80fd5b919050565b5f8060408385031215611944575f80fd5b61194d83611918565b946020939093013593505050565b5f805f6060848603121561196d575f80fd5b61197684611918565b925061198460208501611918565b929592945050506040919091013590565b5f602082840312156119a5575f80fd5b61082482611918565b60ff60f81b8816815260e060208201525f6119cc60e08301896118d8565b82810360408401526119de81896118d8565b606084018890526001600160a01b038716608085015260a0840186905283810360c0850152845180825260208087019350909101905f5b81811015611a33578351835260209384019390920191600101611a15565b50909b9a5050505050505050505050565b5f60208284031215611a54575f80fd5b5035919050565b803560ff8116811461192e575f80fd5b5f805f805f8060c08789031215611a80575f80fd5b611a8987611918565b95506020870135945060408701359350611aa560608801611a5b565b9598949750929560808101359460a0909101359350915050565b5f805f805f805f60e0888a031215611ad5575f80fd5b611ade88611918565b9650611aec60208901611918565b95506040880135945060608801359350611b0860808901611a5b565b9699959850939692959460a0840135945060c09093013592915050565b5f8060408385031215611b36575f80fd5b611b3f83611918565b9150611b4d60208401611918565b90509250929050565b5f8060408385031215611b67575f80fd5b611b7083611918565b9150602083013563ffffffff81168114611b88575f80fd5b809150509250929050565b600181811c90821680611ba757607f821691505b602082108103611bc557634e487b7160e01b5f52602260045260245ffd5b50919050565b634e487b7160e01b5f52601160045260245ffd5b6001600160d01b03818116838216019081111561045957610459611bcb565b6001600160d01b03828116828216039081111561045957610459611bcb565b8181038181111561045957610459611bcb565b8082018082111561045957610459611bcb565b634e487b7160e01b5f52601260045260245ffd5b634e487b7160e01b5f52602160045260245ffd5b634e487b7160e01b5f52603260045260245ffd5b5f82611c9957634e487b7160e01b5f52601260045260245ffd5b50049056fea2646970667358221220f014ff7bb0196a23ed902e8c9baffe351efaff966ee2e16c8c3ab6b4853a262264736f6c634300081a0033dec2bacdd2f05b59de34da9b523dff8be42e5e38e818c82fdb0bae774387a724",
  "linkReferences": {},
  "deployedLinkReferences": {}
}