{
  "_format": "hh-sol-artifact-1",
  "contractName": "BridgeLock",
  "sourceName": "contracts/BridgeLock.sol",
  "abi": [
    {
      "inputs": [
        {
          "internalType": "address",
          "name": "token",
          "type": "address"
        },
        {
          "internalType": "address",
          "name": "relayer",
          "type": "address"
        },
        {
          "internalType": "address",
          "name": "pauser",
          "type": "address"
        }
      ],
      "stateMutability": "nonpayable",
      "type": "constructor"
    },
    {
      "inputs": [],
      "name": "AccessControlBadConfirmation",
      "type": "error"
    },
    {
      "inputs": [
        {
          "internalType": "address",
          "name": "account",
          "type": "address"
        },
        {
          "internalType": "bytes32",
          "name": "neededRole",
          "type": "bytes32"
        }
      ],
      "name": "AccessControlUnauthorizedAccount",
      "type": "error"
    },
    {
      "inputs": [],
      "name": "EnforcedPause",
      "type": "error"
    },
    {
      "inputs": [],
      "name": "ExpectedPause",
      "type": "error"
    },
    {
      "inputs": [],
      "name": "InvalidAmount",
      "type": "error"
    },
    {
      "inputs": [
        {
          "internalType": "uint256",
          "name": "nonce",
          "type": "uint256"
        }
      ],
      "name": "NonceAlreadyProcessed",
      "type": "error"
    },
    {
      "inputs": [
        {
          "internalType": "address",
          "name": "token",
          "type": "address"
        }
      ],
      "name": "SafeERC20FailedOperation",
      "type": "error"
    },
    {
      "anonymous": false,
      "inputs": [
        {
          "indexed": true,
          "internalType": "address",
          "name": "user",
          "type": "address"
        },
        {
          "indexed": false,
          "internalType": "uint256",
          "name": "amount",
          "type": "uint256"
        },
        {
          "indexed": false,
          "internalType": "uint256",
          "name": "nonce",
          "type": "uint256"
        }
      ],
      "name": "Locked",
      "type": "event"
    },
    {
      "anonymous": false,
      "inputs": [
        {
          "indexed": false,
          "internalType": "address",
          "name": "account",
          "type": "address"
        }
      ],
      "name": "Paused",
      "type": "event"
    },
    {
      "anonymous": false,
      "inputs": [
        {
          "indexed": true,
          "internalType": "bytes32",
          "name": "role",
          "type": "bytes32"
        },
        {
          "indexed": true,
          "internalType": "bytes32",
          "name": "previousAdminRole",
          "type": "bytes32"
        },
        {
          "indexed": true,
          "internalType": "bytes32",
          "name": "newAdminRole",
          "type": "bytes32"
        }
      ],
      "name": "RoleAdminChanged",
      "type": "event"
    },
    {
      "anonymous": false,
      "inputs": [
        {
          "indexed": true,
          "internalType": "bytes32",
          "name": "role",
          "type": "bytes32"
        },
        {
          "indexed": true,
          "internalType": "address",
          "name": "account",
          "type": "address"
        },
        {
          "indexed": true,
          "internalType": "address",
          "name": "sender",
          "type": "address"
        }
      ],
      "name": "RoleGranted",
      "type": "event"
    },
    {
      "anonymous": false,
      "inputs": [
        {
          "indexed": true,
          "internalType": "bytes32",
          "name": "role",
          "type": "bytes32"
        },
        {
          "indexed": true,
          "internalType": "address",
          "name": "account",
          "type": "address"
        },
        {
          "indexed": true,
          "internalType": "address",
          "name": "sender",
          "type": "address"
        }
      ],
      "name": "RoleRevoked",
      "type": "event"
    },
    {
      "anonymous": false,
      "inputs": [
        {
          "indexed": true,
          "internalType": "address",
          "name": "user",
          "type": "address"
        },
        {
          "indexed": false,
          "internalType": "uint256",
          "name": "amount",
          "type": "uint256"
        },
        {
          "indexed": false,
          "internalType": "uint256",
          "name": "nonce",
          "type": "uint256"
        }
      ],
      "name": "Unlocked",
      "type": "event"
    },
    {
      "anonymous": false,
      "inputs": [
        {
          "indexed": false,
          "internalType": "address",
          "name": "account",
          "type": "address"
        }
      ],
      "name": "Unpaused",
      "type": "event"
    },
    {
      "inputs": [],
      "name": "DEFAULT_ADMIN_ROLE",
      "outputs": [
        {
          "internalType": "bytes32",
          "name": "",
          "type": "bytes32"
        }
      ],
      "stateMutability": "view",
      "type": "function"
    },
    {
      "inputs": [],
      "name": "PAUSER_ROLE",
      "outputs": [
        {
          "internalType": "bytes32",
          "name": "",
          "type": "bytes32"
        }
      ],
      "stateMutability": "view",
      "type": "function"
    },
    {
      "inputs": [],
      "name": "RELAYER_ROLE",
      "outputs": [
        {
          "internalType": "bytes32",
          "name": "",
          "type": "bytes32"
        }
      ],
      "stateMutability": "view",
      "type": "function"
    },
    {
      "inputs": [
        {
          "internalType": "bytes32",
          "name": "role",
          "type": "bytes32"
        }
      ],
      "name": "getRoleAdmin",
      "outputs": [
        {
          "internalType": "bytes32",
          "name": "",
          "type": "bytes32"
        }
      ],
      "stateMutability": "view",
      "type": "function"
    },
    {
      "inputs": [
        {
          "internalType": "bytes32",
          "name": "role",
          "type": "bytes32"
        },
        {
          "internalType": "address",
          "name": "account",
          "type": "address"
        }
      ],
      "name": "grantRole",
      "outputs": [],
      "stateMutability": "nonpayable",
      "type": "function"
    },
    {
      "inputs": [
        {
          "internalType": "bytes32",
          "name": "role",
          "type": "bytes32"
        },
        {
          "internalType": "address",
          "name": "account",
          "type": "address"
        }
      ],
      "name": "hasRole",
      "outputs": [
        {
          "internalType": "bool",
          "name": "",
          "type": "bool"
        }
      ],
      "stateMutability": "view",
      "type": "function"
    },
    {
      "inputs": [
        {
          "internalType": "uint256",
          "name": "amount",
          "type": "uint256"
        }
      ],
      "name": "lock",
      "outputs": [],
      "stateMutability": "nonpayable",
      "type": "function"
    },
    {
      "inputs": [],
      "name": "nextLockNonce",
      "outputs": [
        {
          "internalType": "uint256",
          "name": "",
          "type": "uint256"
        }
      ],
      "stateMutability": "view",
      "type": "function"
    },
    {
      "inputs": [],
      "name": "pauseBridge",
      "outputs": [],
      "stateMutability": "nonpayable",
      "type": "function"
    },
    {
      "inputs": [],
      "name": "paused",
      "outputs": [
        {
          "internalType": "bool",
          "name": "",
          "type": "bool"
        }
      ],
      "stateMutability": "view",
      "type": "function"
    },
    {
      "inputs": [
        {
          "internalType": "uint256",
          "name": "",
          "type": "uint256"
        }
      ],
      "name": "processedUnlockNonces",
      "outputs": [
        {
          "internalType": "bool",
          "name": "",
          "type": "bool"
        }
      ],
      "stateMutability": "view",
      "type": "function"
    },
    {
      "inputs": [
        {
          "internalType": "bytes32",
          "name": "role",
          "type": "bytes32"
        },
        {
          "internalType": "address",
          "name": "callerConfirmation",
          "type": "address"
        }
      ],
      "name": "renounceRole",
      "outputs": [],
      "stateMutability": "nonpayable",
      "type": "function"
    },
    {
      "inputs": [
        {
          "internalType": "bytes32",
          "name": "role",
          "type": "bytes32"
        },
        {
          "internalType": "address",
          "name": "account",
          "type": "address"
        }
      ],
      "name": "revokeRole",
      "outputs": [],
      "stateMutability": "nonpayable",
      "type": "function"
    },
    {
      "inputs": [
        {
          "internalType": "bytes4",
          "name": "interfaceId",
          "type": "bytes4"
        }
      ],
      "name": "supportsInterface",
      "outputs": [
        {
          "internalType": "bool",
          "name": "",
          "type": "bool"
        }
      ],
      "stateMutability": "view",
      "type": "function"
    },
    {
      "inputs": [
        {
          "internalType": "address",
          "name": "user",
          "type": "address"
        },
        {
          "internalType": "uint256",
          "name": "amount",
          "type": "uint256"
        },
        {
          "internalType": "uint256",
          "name": "nonce",
          "type": "uint256"
        }
      ],
      "name": "unlock",
      "outputs": [],
      "stateMutability": "nonpayable",
      "type": "function"
    },
    {
      "inputs": [],
      "name": "unpauseBridge",
      "outputs": [],
      "stateMutability": "nonpayable",
      "type": "function"
    },
    {
      "inputs": [],
      "name": "vaultToken",
      "outputs": [
        {
          "internalType": "contract IERC20",
          "name": "",
          "type": "address"
        }
      ],
      "stateMutability": "view",
      "type": "function"
    }
  ],
  "bytecode": "0x60a060405234801561000f575f80fd5b50604051610bbf380380610bbf83398101604081905261002e91610168565b6001600160a01b0383166080526100455f336100a4565b506100707fe2b7fb3b832174769106daebcfd6d1970523240dda11281102db9363b83b0dc4836100a4565b5061009b7f65d7a28e3265b37a6474929f336521b332c1681b933f6cb9f3376673440d862a826100a4565b505050506101a8565b5f828152602081815260408083206001600160a01b038516845290915281205460ff16610144575f838152602081815260408083206001600160a01b03861684529091529020805460ff191660011790556100fc3390565b6001600160a01b0316826001600160a01b0316847f2f8788117e7eff1d82e926ec794901d17c78024a50270940304540a733656f0d60405160405180910390a4506001610147565b505f5b92915050565b80516001600160a01b0381168114610163575f80fd5b919050565b5f805f6060848603121561017a575f80fd5b6101838461014d565b92506101916020850161014d565b915061019f6040850161014d565b90509250925092565b6080516109f16101ce5f395f81816101c50152818161047d015261055d01526109f15ff3fe608060405234801561000f575f80fd5b5060043610610106575f3560e01c80637dd0480f1161009e578063a82f143c1161006e578063a82f143c14610248578063b5674c6814610250578063d547741f14610263578063dd46706414610276578063e63ab1e914610289575f80fd5b80637dd0480f146101ff57806391d1485414610207578063926d7d7f1461021a578063a217fddf14610241575f80fd5b80632f2ff15d116100d95780632f2ff15d1461018d57806336568abe146101a25780635c975abb146101b5578063703bafd5146101c0575f80fd5b806301ffc9a71461010a57806306c8abcc14610132578063248a9ca3146101545780632e9a217114610184575b5f80fd5b61011d6101183660046108dd565b6102b0565b60405190151581526020015b60405180910390f35b61011d61014036600461090b565b60036020525f908152604090205460ff1681565b61017661016236600461090b565b5f9081526020819052604090206001015490565b604051908152602001610129565b61017660025481565b6101a061019b36600461093d565b6102e6565b005b6101a06101b036600461093d565b610310565b60015460ff1661011d565b6101e77f000000000000000000000000000000000000000000000000000000000000000081565b6040516001600160a01b039091168152602001610129565b6101a0610348565b61011d61021536600461093d565b61037d565b6101767fe2b7fb3b832174769106daebcfd6d1970523240dda11281102db9363b83b0dc481565b6101765f81565b6101a06103a5565b6101a061025e366004610967565b6103d7565b6101a061027136600461093d565b6104ee565b6101a061028436600461090b565b610512565b6101767f65d7a28e3265b37a6474929f336521b332c1681b933f6cb9f3376673440d862a81565b5f6001600160e01b03198216637965db0b60e01b14806102e057506301ffc9a760e01b6001600160e01b03198316145b92915050565b5f82815260208190526040902060010154610300816105c4565b61030a83836105ce565b50505050565b6001600160a01b03811633146103395760405163334bd91960e11b815260040160405180910390fd5b610343828261065d565b505050565b7f65d7a28e3265b37a6474929f336521b332c1681b933f6cb9f3376673440d862a610372816105c4565b61037a6106c6565b50565b5f918252602082815260408084206001600160a01b0393909316845291905290205460ff1690565b7f65d7a28e3265b37a6474929f336521b332c1681b933f6cb9f3376673440d862a6103cf816105c4565b61037a61071a565b7fe2b7fb3b832174769106daebcfd6d1970523240dda11281102db9363b83b0dc4610401816105c4565b825f036104215760405163162908e360e11b815260040160405180910390fd5b5f8281526003602052604090205460ff16156104585760405163e5d143ad60e01b8152600481018390526024015b60405180910390fd5b5f828152600360205260409020805460ff191660011790556104a46001600160a01b037f0000000000000000000000000000000000000000000000000000000000000000168585610753565b60408051848152602081018490526001600160a01b038616917f3f2f29fa02cc34566ac167b446be0be9e0254cac18eda93b2dfe6a7a7c8affb9910160405180910390a250505050565b5f82815260208190526040902060010154610508816105c4565b61030a838361065d565b61051a6107b2565b805f0361053a5760405163162908e360e11b815260040160405180910390fd5b5f60025f815461054990610997565b918290555090506105856001600160a01b037f0000000000000000000000000000000000000000000000000000000000000000163330856107d8565b604080518381526020810183905233917fd4665e3049283582ba6f9eba07a5b3e12dab49e02da99e8927a47af5d134bea5910160405180910390a25050565b61037a8133610811565b5f6105d9838361037d565b610656575f838152602081815260408083206001600160a01b03861684529091529020805460ff1916600117905561060e3390565b6001600160a01b0316826001600160a01b0316847f2f8788117e7eff1d82e926ec794901d17c78024a50270940304540a733656f0d60405160405180910390a45060016102e0565b505f6102e0565b5f610668838361037d565b15610656575f838152602081815260408083206001600160a01b0386168085529252808320805460ff1916905551339286917ff6391f5c32d9c69d2a47ea670b442974b53935d1edc7fd64eb21e047a839171b9190a45060016102e0565b6106ce6107b2565b6001805460ff1916811790557f62e78cea01bee320cd4e420270b5ea74000d11b0c9f74754ebdbfc544b05a258335b6040516001600160a01b03909116815260200160405180910390a1565b61072261084e565b6001805460ff191690557f5db9ee0a495bf2e6ff9c91a7834c1ba4fdd244a5e8aa4e537bd38aeae4b073aa336106fd565b6040516001600160a01b0383811660248301526044820183905261034391859182169063a9059cbb906064015b604051602081830303815290604052915060e01b6020820180516001600160e01b038381831617835250505050610871565b60015460ff16156107d65760405163d93c066560e01b815260040160405180910390fd5b565b6040516001600160a01b03848116602483015283811660448301526064820183905261030a9186918216906323b872dd90608401610780565b61081b828261037d565b61084a5760405163e2517d3f60e01b81526001600160a01b03821660048201526024810183905260440161044f565b5050565b60015460ff166107d657604051638dfc202b60e01b815260040160405180910390fd5b5f8060205f8451602086015f885af180610890576040513d5f823e3d81fd5b50505f513d915081156108a75780600114156108b4565b6001600160a01b0384163b155b1561030a57604051635274afe760e01b81526001600160a01b038516600482015260240161044f565b5f602082840312156108ed575f80fd5b81356001600160e01b031981168114610904575f80fd5b9392505050565b5f6020828403121561091b575f80fd5b5035919050565b80356001600160a01b0381168114610938575f80fd5b919050565b5f806040838503121561094e575f80fd5b8235915061095e60208401610922565b90509250929050565b5f805f60608486031215610979575f80fd5b61098284610922565b95602085013595506040909401359392505050565b5f600182016109b457634e487b7160e01b5f52601160045260245ffd5b506001019056fea2646970667358221220fad6c9728de06ad48e09f0da0604e038653544c8515fe1c476c633f2fdf6b4ab64736f6c634300081a0033",
  "linkReferences": {},
  "deployedLinkReferences": {}
}